:100000000C9450010C9478010C9478010C947801B4
:100010000C9478010C9478010C9478010C9478017C
:100020000C9478010C9478010C9478010C9478016C
:100030000C9478010C94CB0E0C9478010C947801FC
:100040000C9454130C9478010C94980E0C94720E2A
:100050000C9478010C9478010C9478010C9478013C
:100060000C94D5110C94780100407A10F35A00A03A
:10007000724E18090010A5D4E80000E87648170071
:1000800000E40B54020000CA9A3B000000E1F505B1
:10009000000080969800000040420F000000A086FB
:1000A00001000000102700000000E803000000002D
:1000B0006400000000000A000000000001000000D1
:1000C00000002C76D888DC674F0823DFC1DFAE59EB
:1000D000E1B1B796E5E3E453C63AE651997696E87E
:1000E000E6C28426EB898C9B62ED407C6FFCEFBC02
:1000F0009C9F40F2BAA56FA5F490055A2AF75C932D
:100100006B6CF9676DC11BFCE0E40D47FEF520E662
:10011000B500D0ED902E0300943577050080841E45
:10012000080000204E0A000000C80C333333330FA0
:10013000986E12831141EF8D2114893BE65516CF3D
:10014000FEE6DB18D1844B381BF77C1D901DA4BB49
:10015000E424203284725E228100C9F124ECA1E5FE
:100160003D2756656B745B6B675D7C4B6F6E73747C
:100170005B4E2F6D6D5D0056656B745B6B675D004C
:100180004E657374653A20736C6970706572206691
:100190006A6165720053746976686574206B203DEE
:1001A0002000506C61737365722076656B74202338
:1001B000004C612076656B74656E2068656E6765BE
:1001C00020746F6D0020202020202020202020205F
:1001D000202020202020202020002020202020203F
:1001E0002020205669646572653A7C4F4B7C002064
:1001F0002020202020202020202056656C673A7C7B
:100200004F4B7C00202020202020202042656B7254
:100210006566743A7C4F4B7C003C2D3A7C54696C8B
:10022000622E7C2056656C673A7C4F4B7C0019022D
:100230000402EF01DA01C501B101A20195018001BB
:100240007701620100000000240027002A0000005E
:100250000000250028002B000000000023002600DD
:100260002900040404040404040402020202020239
:10027000030303030303010204081020408001026A
:1002800004081020010204081020000000080002E9
:100290000100000304070000000000000000E01D52
:1002A00011241FBECFEFD8E0DEBFCDBF26E0ACE902
:1002B000B3E001C01D92A339B207E1F713E0A0E05B
:1002C000B1E0ECE0F0E502C005900D92AC39B10769
:1002D000D9F711E0C0E5D1E004C02197FE010E94EA
:1002E0000226CF34D107C9F70E946A1A0C94042859
:1002F0000C940000DC01FB01F89414962D913C91C4
:10030000159718968C911897823021F4C901817045
:10031000992705C0843041F4C90183709927159647
:100320009C938E93149704C015961C921E9214975A
:10033000789418968C911897843029F435952795E0
:100340003595279504C0823011F4359527951B9675
:100350008C911B97882339F019968D919C911A974F
:10036000892F992702C080E090E037FF03C0809575
:10037000909506C0232B11F0019602C080E090E01A
:1003800022813381820F931F938382832081318165
:1003900082179307A9F0281739072CF42481358197
:1003A0002F5F3F4F07C08217930734F424813581B4
:1003B00021503109358324839183808381E08683B2
:1003C000089510924C060895CF92DF92EF92FF921B
:1003D0001F93CF93DF93EC01162F2AE037ED43E212
:1003E0005CE369857A858B859C850E94A224698758
:1003F0007A878B879C87CD84DE84EF84F888A70179
:1004000096010E94252387FF0FC0112349F0898997
:100410009A89AB89BC8989879A87AB87BC8704C0D6
:10042000C986DA86EB86FC8681E0DF91CF911F9149
:10043000FF90EF90DF90CF900895CF92DF92EF92F0
:10044000FF921F93CF93DF93EC01162F2D893E89E6
:100450004F89588D69857A858B859C850E94A22459
:1004600069877A878B879C87CD84DE84EF84F888C0
:10047000A70196010E94252387FF0FC0112349F091
:1004800089899A89AB89BC8989879A87AB87BC8718
:1004900004C0C986DA86EB86FC8681E0DF91CF91C5
:1004A0001F91FF90EF90DF90CF900895CF92DF9251
:1004B000EF92FF921F93CF93DF93EC01162F2AE068
:1004C00037ED43E25CE369857A858B859C850E94E4
:1004D000A32469877A878B879C87C988DA88EB8809
:1004E000FC88A70196010E94B72518167CF41123F9
:1004F00049F08D859E85AF85B88989879A87AB87B6
:10050000BC8704C0C986DA86EB86FC8681E0DF9171
:10051000CF911F91FF90EF90DF90CF900895CF92F1
:10052000DF92EF92FF921F93CF93DF93EC01162F90
:100530002D893E894F89588D69857A858B859C8563
:100540000E94A32469877A878B879C87C988DA8869
:10055000EB88FC88A70196010E94B72518167CF449
:10056000112349F08D859E85AF85B88989879A8743
:10057000AB87BC8704C0C986DA86EB86FC8681E03F
:10058000DF91CF911F91FF90EF90DF90CF90089572
:10059000DB01ED91FC9111970680F781E02DBC0104
:1005A000CD010994DC0114969C91149781E0892770
:1005B00014968C931497811108C01696ED91FC91B6
:1005C0001797309711F0CD01099580E090E00895DC
:1005D00080E00895DB01ED91FC9111970280F38199
:1005E000E02DBC01CD010994DB01ED91FC91119747
:1005F0000084F185E02DBC01CD0109940F931F9378
:10060000CF93DF93EC0100E010E08E8590E00817B7
:1006100019079CF4C801880F991FEA85FB85E80F2C
:10062000F91F80819181DC01ED91FC910284F385B9
:10063000E02D09950F5F1F4FE8CFE885F9851582FA
:10064000188A1F868E85882331F0EA85FB85019004
:10065000F081E02D02C0E0E0F0E0F987E88781E07A
:100660008583DF91CF911F910F910895FC018785BC
:10067000808B9685992331F1882311F0815004C035
:10068000662301F18FEF890F878722859385A22F3B
:10069000B92FA80FB11DA80FB11D0D90BC91A02DB1
:1006A000B187A08781E015968C938089E22FF92F7E
:1006B000E80FF11DE80FF11D0190F081E02D15828A
:1006C00081E0089580E00895CF93DF93FC01878552
:1006D000808B26852223B1F1482F50E030E0215055
:1006E000310942175307B1F08F5F878722859385C1
:1006F000A22FB92FA80FB11DA80FB11D0D90BC914D
:10070000A02DB187A08781E015968C938089E22F78
:10071000F92F0EC06623B1F01786A285B385CD915F
:10072000DC911197D187C08781E08D838089FD019D
:10073000E80FF11DE80FF11D0190F081E02D158209
:1007400081E001C080E0DF91CF910895DC01169631
:10075000ED91FC911797309709F0099580E090E0B2
:1007600008950E94A60380E090E00895CF93DF9360
:10077000EC010E94A603CE01DF91CF910895EF9284
:10078000FF920F931F93CF93DF93CDB7DEB7A1975F
:100790000FB6F894DEBF0FBECDBF7C01CB01BA010E
:1007A000F7011182108213821282158214828E0147
:1007B0000F5F1F4F22E044E00E949720009769F0EE
:1007C000FC0101900020E9F73197AF01481B590B5C
:1007D000BC01C7010E94B01303C0C7010E949E1351
:1007E000C701A1960FB6F894DEBF0FBECDBFDF9153
:1007F000CF911F910F91FF90EF900895EF92FF928C
:100800000F931F93CF93DF93CDB7DEB762970FB6E9
:10081000F894DEBF0FBECDBF8C01FC0111821082A7
:100820001382128215821482CB01BA010E948125A3
:10083000DC01CB014AE09E012F5F3F4F7901B901F6
:100840000E94BE20F70101900020E9F73197AF0127
:100850004E195F09B701C8010E94B013C801629622
:100860000FB6F894DEBF0FBECDBFDF91CF911F91C1
:100870000F91FF90EF9008950E9443170C9460171A
:1008800010920B0180910B01811107C06AE070E0AA
:1008900080E090E00E94301AF5CF10920B0108958D
:1008A0000C94F4170C949B18880F991FFC01E25DBF
:1008B000FD4F6591749187E194E00C94B720CF933C
:1008C000DF93EB010E948D179C0191E0211531050A
:1008D00009F490E09883232B11F481E08B838981C4
:1008E000981711F081E08A839983DF91CF91089561
:1008F0008091090490910A040E94F20E80910704ED
:10090000909108040E94F20E6CE676E08091090452
:1009100090910A040E947A0165E676E080910704CE
:10092000909108040E947A0180919C0390919D030C
:10093000843F21E092072CF4019690939D038093CD
:100940009C0380919C0390919D03843F914084F08F
:1009500068E071E086E090E00E945F0464E071E08E
:1009600084E090E00E945F0410929D0310929C032B
:1009700060E071E085E090E00E945F0480910301F7
:10098000882339F00E94E51781E080934C0610928D
:10099000030108950F931F93CF93DF930E94EA17EB
:1009A00060E0809148060E94B617C0E0D0E00BECF2
:1009B00017E061E0809146060E94B617C8010197D2
:1009C000F1F760E0809146060E94B617C8010197D2
:1009D000F1F72196C03283E0D80759F7DF91CF9124
:1009E0001F910F910C94E5172F923F924F925F92B7
:1009F0006F927F928F929F92AF92BF92CF92DF922F
:100A0000EF92FF920F931F93CF93DF93CDB7DEB793
:100A1000C251D1400FB6F894DEBF0FBECDBF80905B
:100A2000B3059090B405A090B505B090B60580913F
:100A3000980590919905A0919A05B0919B05C15F89
:100A4000DE4F88839983AA83BB83CF50D1404090E7
:100A50007D0550907E0560907F05709080050E9416
:100A60000B1668E971E0CE0101960E94E713BE0102
:100A70006F5F7F4F81E090E00E948616CE01019665
:100A80000E94731783E090E00E94540467E174E0D1
:100A9000CE0101960E94E713BE016F5F7F4F83E096
:100AA00090E00E948616CE0101960E9473170E9464
:100AB0004004F89480E090E0A0E8BFE380936106F2
:100AC00090936206A0936306B09364060E949B18FD
:100AD0008091540690915506A0915606B091570604
:100AE0008093610690936206A0936306B0936406B8
:100AF00078940E940B1665EA71E0CE0101960E947F
:100B0000E713BE016F5F7F4F80E090E00E94861682
:100B1000CE0101960E947317B501A40181E090E017
:100B20000E94971689E090E00E94540467E174E007
:100B3000CE0101960E94E713BE016F5F7F4F82E0F6
:100B400090E00E948616CE0101960E947317809154
:100B50004C068111EBC2F8940E94C8187894A50144
:100B600094010E94252387FF08C062E070E080E0C6
:100B700090E00E94E51810E001C011E064EF71E020
:100B800080E090E00E94301AF8940E94C818AB01EF
:100B9000BC01789483E090E00E94971664EF71E0C6
:100BA00080E090E00E94301A112389F289E090E001
:100BB0000E94540467E174E0CE0101960E94E7139D
:100BC000BE016F5F7F4F82E090E00E948616CE01EB
:100BD00001960E94731780914C068111A7C2F89468
:100BE0000E94C8186B017C0178942AE037ED43E23B
:100BF0005CE3C501B4010E94A2249B01AC01C701C2
:100C0000B6010E94252387FF03C04FEF5FEF12C09C
:100C10002AE037ED43E25CE3C501B4010E94A3245E
:100C20009B01AC01C701B6010E94B725181654F408
:100C300041E050E065E070E080E090E00E942A1919
:100C400010E001C011E064EF71E080E090E00E94EC
:100C5000301AF8940E94C818AB01BC01789483E064
:100C600090E00E9497166CED75E080E090E00E94A5
:100C7000301A112309F4AFCF89E090E00E945404A8
:100C800067E174E0CE0101960E94E713BE016F5F39
:100C90007F4F82E090E00E948616CE0101960E946E
:100CA000731780914C06811141C2F8940E94C818B4
:100CB0006B017C0178942FE632E143E85AE3C501E9
:100CC000B4010E94A2249B01AC01C701B6010E949D
:100CD000252387FF03C04FEF5FEF12C02FE632E1FD
:100CE00043E85AE3C501B4010E94A3249B01AC016F
:100CF000C701B6010E94B725181654F441E050E030
:100D000061E070E080E090E00E942A1910E001C0EC
:100D100011E064EF71E080E090E00E94301AF894F6
:100D20000E94C8186B017C017894AB01BC0183E080
:100D300090E00E94971664EC79E080E090E00E94D9
:100D4000301A112309F4ADCFC301B2010E948825E6
:100D5000C55FDE4F688379838A839B83CB50D14004
:100D60000E940B166CEA71E0CE0101960E94E71317
:100D7000BE016F5F7F4F81E090E00E948616CE013A
:100D800001960E94731783E090E00E94540467E18B
:100D900074E0CE0101960E94E713BE016F5F7F4FA2
:100DA00083E090E00E948616CE0101960E947317A0
:100DB0000E944004F8940E949B1878940E940B169D
:100DC0006DEB71E0CE0101960E94E713BE016F5FEB
:100DD0007F4F80E090E00E948616CE0101960E942F
:100DE0007317C15FDE4F488159816A817B81CF5083
:100DF000D14081E090E00E9497168AE090E00E9446
:100E0000540467E174E0CE0101960E94E713BE012D
:100E10006F5F7F4F82E090E00E948616CE010196C0
:100E20000E947317212C312C812C912C540180911C
:100E30004C0681117BC1A7019601C15FDE4F68811D
:100E400079818A819B81CF50D1400E94B7251816A5
:100E50000CF085C0C55FDE4F688179818A819B81F6
:100E6000CB50D1400E94E51868EE73E080E090E03E
:100E70000E94301AF8940E94C8186B017C01789483
:100E8000C55FDE4F688179818A819B81CB50D140DB
:100E90000E942A239B01AC01C501B4010E94A32436
:100EA0004B015C0129E739EE4CE151E4C701B60181
:100EB0000E948B23A50194010E940F252B013C0168
:100EC000F101EE0FFF1FEE0FFF1FA1E0B0E0AC0F2E
:100ED000BD1FEA0FFB1F4082518262827382930121
:100EE0008201B701A60183E090E00E94B11668EC90
:100EF00071E087E794E00E942815C501B4010E94C3
:100F000078176CEC71E087E794E00E942815C70120
:100F1000B6010E9478176AED71E087E794E00E94BD
:100F20002815A101032C000C660B770B87E794E0D2
:100F30000E9415166EED71E087E794E00E945D0E49
:100F400061EE71E087E794E00E942815C301B201C9
:100F50000E947817BFEF2B1A3B0A10E001C011E086
:100F600060ED77E080E090E00E94301A112309F4F0
:100F70005ECF0E940B168E010F5F1F4FC12CD12C2C
:100F800076012101032C000C66087708C214D304F3
:100F90000CF044C0F80181909190A190B1908F0124
:100FA000C301B2010E942C239B01AC01C501B40115
:100FB0000E940F25C95FDE4F688379838A839B83F4
:100FC000C750D1406BEE71E087E794E00E9428158E
:100FD000C95FDE4F688179818A819B81C750D1408A
:100FE0000E94781767EE71E087E794E00E94281569
:100FF000B701A60187E794E00E9415166EEF71E035
:1010000087E794E00E942815C501B4010E94781773
:10101000FFEFCF1ADF0AEF0AFF0AB8CF62E072E0F3
:1010200087E794E00E942815C95FDE4F68817981C7
:101030008A819B81C750D1400E94781787E090E059
:101040000E94540467E174E0CE018F5F9E4F0E94BE
:10105000E713BE016F5F7E4F80E090E00E9486162E
:10106000CE018F5F9E4F0E947317C95FDE4F48818C
:1010700059816A817B81C750D14081E090E00E9414
:10108000971688E090E00E94540467E174E0CE0176
:101090008F5F9E4F0E94E713BE016F5F7E4F82E01D
:1010A00090E00E948616CE018F5F9E4F0E947317BC
:1010B00083E090E00E94540467E174E0CE018F5F0A
:1010C0009E4F0E94E713BE016F5F7E4F83E090E06A
:1010D0000E948616CE018F5F9E4F0E9473170E945A
:1010E00040040E940B1680914C0681111FC0F89499
:1010F0000E94C81878942FE632E143E85AE30E9430
:10110000B72518169CF40E94F41768EE73E080E08F
:1011100090E00E94301AF8940E94C818AB01BC01FC
:10112000789483E090E00E949716DDCF0E943C0403
:10113000CE5EDE4F0FB6F894DEBF0FBECDBFDF919F
:10114000CF911F910F91FF90EF90DF90CF90BF90C4
:10115000AF909F908F907F906F905F904F903F9057
:101160002F9008952F923F924F925F926F927F92AD
:101170008F929F92AF92BF92CF92DF92EF92FF92A7
:101180000F931F93CF93DF93CDB7DEB7E2970FB6E0
:10119000F894DEBF0FBECDBF19821A821B821C825B
:1011A00080911D0690911E06A0911F06B091200609
:1011B0008D839E83AF83B88780910206909103064A
:1011C000A0910406B091050689879A87AB87BC87F2
:1011D0008091E7059091E805A091E905B091EA05B5
:1011E0008D879E87AF87B88B0E940B1685E090E0B5
:1011F0000E94540467E174E0CE0145960E94E71313
:10120000BE016B5E7F4F81E090E00E948616CE01AA
:1012100045960E94731783E090E00E94540467E1B2
:1012200074E0CE0145960E94E713BE016B5E7F4FCE
:1012300083E090E00E948616CE0145960E947317C7
:101240000E9440040E940B1686E090E00E94540425
:1012500067E174E0CE0145960E94E713BE016B5E24
:101260007F4F81E090E00E948616CE0145960E9455
:101270007317F89480E090E0A0E8BFE380936106E4
:1012800090936206A0936306B09364060E949B1835
:101290007894C0905406D0905506E0905606F09091
:1012A0005706CD8ADE8AEF8AF88EC0926106D09208
:1012B0006206E0926306F0926406CE0101969CA756
:1012C0008BA7FE017996FEA7EDA788248394912C25
:1012D0000E940B1686E090E00E94540467E174E0DF
:1012E000CE0185960E94E713B401CE0185960E9437
:1012F0004716CE0185960E94731783E090E00E9406
:10130000540467E174E0CE0185960E94E713BE01A4
:101310006B5D7F4F83E090E00E948616CE0185963C
:101320000E9473170E944004EBA5FCA544805580E1
:101330006680778065E172E0CE0185960E94E713B2
:10134000A3019201BE016B5D7F4F80E090E00E949F
:101350006416CE0185960E9473176CE172E0CE018F
:1013600085960E94E713BE016B5D7F4F81E090E0A0
:101370000E948616CE0185960E947317F8940E94EB
:10138000C8181B012C01789497018601AB01BC01A0
:1013900082E090E00E94B11680910B018111B5C0EE
:1013A000F894C0926106D0926206E0926306F092D1
:1013B00064060E94C8183B015C0178942AE037ED6E
:1013C00043E25CE3B101C2010E94A3249B01AC0192
:1013D000B301C5010E94B72587FF1AC02AE037ED87
:1013E00043E25CE3B101C2010E94A2249B01AC0173
:1013F000B301C5010E942523181654F42FA538A95E
:1014000049A95AA9C701B6010E942523882341F0A2
:1014100097018601A301B50182E090E00E94B11618
:10142000EBA5FCA524803580468057802AE037ED67
:1014300043E25CE3C201B1010E94A3249B01AC0121
:10144000B301C5010E94B7251816F4F42DEC3CEC4D
:101450004CEC5DE3C201B1010E94A3249B01AC01ED
:10146000B301C5010E94B72518162CF420E030E026
:1014700048EC52E404C020E030E040E251E4C7010F
:10148000B6010E94A3242DC02AE037ED43E25CE3BD
:10149000C201B1010E94A2249B01AC01B301C501AC
:1014A0000E94252387FF20C02DEC3CEC4CEC5DE333
:1014B000C201B1010E94A3249B01AC01B301C5018B
:1014C0000E94252387FF05C020E030E048EC52E46D
:1014D00004C020E030E040E251E4C701B6010E94C0
:1014E000A2241B012C0102C01601270168E071E053
:1014F00086E090E00E945F04CFA6D8AAE9AAFAAAE3
:10150000610172011301250147CF0E940B1661E3AF
:1015100072E0CE0185960E94E713A7019601BE01F5
:101520006B5D7F4F81E090E00E946416CE0185964E
:101530000E94731765E172E0CE0185960E94E71361
:101540009101A201BE016B5D7F4F82E090E00E949D
:101550006416CE0185960E94731783E090E00E9486
:10156000540467E174E0CE0185960E94E713BE0142
:101570006B5D7F4F83E090E00E948616CE018596DA
:101580000E947317EDA5FEA5C192D192E192F1924E
:10159000FEA7EDA70E944004FFEF8F1A9F0A8BA5BC
:1015A0009CA504969CA78BA794E08916910409F04A
:1015B0008FCE5E01E5E1AE0EB11C4E01F5E28F0E5D
:1015C000911C412C512C3201F50161917191819155
:1015D00091915F0120E030E040E85EE30E948B23C0
:1015E0009B01AC01C301B2010E94A3242B013C0169
:1015F000A814B90449F70E940B166FE372E0CE01FC
:1016000085960E94E713BE016B5D7F4F80E090E0FE
:101610000E948616CE0185960E94731761E372E0E0
:10162000CE0185960E94E713A7019601BE016B5D6E
:101630007F4F81E090E00E946416CE0185960E9463
:10164000731783E090E00E94540467E174E0CE01D8
:1016500085960E94E713BE016B5D7F4F83E090E0AB
:101660000E948616CE0185960E9473170E94400440
:10167000F8944092610650926206609263067092FE
:10168000640678940E9443170E946017E2960FB692
:10169000F894DEBF0FBECDBFDF91CF911F910F91A8
:1016A000FF90EF90DF90CF90BF90AF909F908F9082
:1016B0007F906F905F904F903F902F9008951F9371
:1016C000CF93DF9300D000D000D0CDB7DEB76091CC
:1016D000290570912A0580912B0590912C050E9477
:1016E0008125CB010E944924182F63E572E0CE01C9
:1016F00001960E94E713612F70E080E090E00E9465
:101700002A239B01AC01BE016F5F7F4F83E090E015
:101710000E946416CE0101960E94731760ED77E077
:1017200080E090E00E94301A26960FB6F894DEBF53
:101730000FBECDBFDF91CF911F9108950F931F93DF
:10174000CF93DF9300D000D000D0CDB7DEB78B01B0
:1017500082E090E00E945404F80162817381CE011E
:1017600001960E94E713CE0101960E942D17CE012B
:1017700001960E94731726960FB6F894DEBF0FBE2F
:10178000CDBFDF91CF911F910F910895CF92DF923E
:10179000EF92FF920F931F93CF93DF9300D000D06F
:1017A00000D0CDB7DEB78B01FB01C184D284E384C6
:1017B000F48462817381CE0101960E94E713B70120
:1017C000A601CE0101960E940C17CE0101960E943F
:1017D0007317F8018481811103C080E090E002C09A
:1017E00081E090E00E94540467E174E0CE0101962C
:1017F0000E94E713CE0101960E941316CE010196B6
:101800000E94731726960FB6F894DEBF0FBECDBFA9
:10181000DF91CF911F910F91FF90EF90DF90CF90CC
:101820000895CF93DF9300D000D000D0CDB7DEB7BE
:10183000FB0162817381CE0101960E94E713CE0104
:1018400001960E941316CE0101960E9473172696E8
:101850000FB6F894DEBF0FBECDBFDF91CF910895D4
:101860000F931F93CF93DF9300D000D000D0CDB75C
:10187000DEB78B0180E090E00E945404F8016281A1
:101880007381CE0101960E94E713CE0101960E945A
:10189000F616CE0101960E94731726960FB6F8949D
:1018A000DEBF0FBECDBFDF91CF911F910F91089585
:1018B000EF92FF920F931F93CF93DF9300D000D04E
:1018C00000D0CDB7DEB77C018B01DB0112966D91A4
:1018D0007C911397CE0101960E94E713CE010196E9
:1018E0000E94E416CE0101960E947317F8018085CC
:1018F0009185DC01ED91FC910190F081E02DB70123
:10190000099526960FB6F894DEBF0FBECDBFDF91C6
:10191000CF911F910F91FF90EF9008950F931F9318
:10192000CF93DF93EC018B016E8570E06F5F7F4F8B
:10193000660F771F8A859B850E9429279B878A8748
:10194000009791F02E85FC01E20FF11DE20FF11DD1
:1019500011830083211105C01987088781E0F801F0
:1019600085838E858F5F8E87DF91CF911F910F9139
:101970000895FC01538D448D252F30E0842F90E095
:10198000821B930B541710F0CF960895019708957A
:10199000FC01918D828D981761F0828DDF01A80F77
:1019A000B11D5D968C91928D9F5F9F73928F90E099
:1019B00008958FEF9FEF0895FC01918D828D981708
:1019C00031F0828DE80FF11D858D90E008958FEF45
:1019D0009FEF0895FC01918D228D892F90E0805C0E
:1019E0009F4F821B91098F739927089587E794E091
:1019F0000E94EA0C21E0892B09F420E0822F08954F
:101A0000FC01848DDF01A80FB11DA35ABF4F2C919B
:101A1000848D90E001968F739927848FA689B7896A
:101A20002C93A089B1898C91837080648C93938D61
:101A3000848D981306C00288F389E02D80818F7D04
:101A400080830895EF92FF920F931F93CF93DF93BC
:101A5000EC0181E0888F9B8D8C8D981305C0E889FF
:101A6000F989808185FD26C0F62E0B8D10E00F5F71
:101A70001F4F0F731127E02E8C8DE8120CC00FB68C
:101A800007FCFACFE889F989808185FFF5CFCE017F
:101A90000E94000DF1CF8B8DFE01E80FF11DE35A7E
:101AA000FF4FF0829FB7F8940B8FEA89FB89808102
:101AB00080620AC09FB7F894EE89FF896083E88945
:101AC000F98980818370806480839FBF81E090E08A
:101AD000DF91CF911F910F91FF90EF900895CF93D9
:101AE000DF93EC01888D8823C9F0EA89FB89808126
:101AF00085FD05C0A889B9898C9186FD0FC00FB6F8
:101B000007FCF5CF808185FFF2CFA889B9898C9138
:101B100085FFEDCFCE010E94000DE7CFDF91CF9181
:101B2000089580E090E0892B29F00E94F60C811145
:101B30000C940000089585ED8093BC008091BC005A
:101B400084FDFCCF1092520408954091BE03262FCD
:101B500030E0240F311D21323105DCF42091520494
:101B60002430C9F4FC0180E090E0861758F43091ED
:101B7000BE032191DC01A256BC4FA30FB11D2C93D3
:101B80000196F3CF8091BE03680F6093BE0380E09F
:101B9000089581E0089582E00895089508950895D4
:101BA000E091060480910504E81730F4F0E0EF516D
:101BB000FC4F808190E008958FEF9FEF0895909102
:101BC000060480910504981750F4E92FF0E0EF51D6
:101BD000FC4F208130E09F5F9093060402C02FEFFE
:101BE0003FEFC90108958091050490E0209106041B
:101BF000821B91090895CF92DF92EF92FF920F938B
:101C00001F93CF93DF937C01CB018A012091530472
:101C1000222389F0EB016B01C40ED51ECC15DD0526
:101C200069F06991D701ED91FC910190F081E02D6F
:101C3000C7010995F3CF642F0E94A50DC801DF915C
:101C4000CF911F910F91FF90EF90DF90CF9008956B
:101C5000CF93DF931F92CDB7DEB7698320915304F2
:101C60002223D1F020917604203240F021E030E0B0
:101C7000FC013383228380E090E015C080915404FE
:101C8000E82FF0E0EB5AFB4F998190838F5F8093B0
:101C900054048093760405C061E0CE0101960E9451
:101CA000A50D81E090E00F90DF91CF910895089508
:101CB00080E090E008950C94A0266115710579F0FC
:101CC000FB0101900020E9F73197AF01461B570B4C
:101CD000DC01ED91FC910280F381E02D099480E01C
:101CE00090E008951F920F920FB60F9211242F9338
:101CF0003F934F935F936F937F938F939F93AF9394
:101D0000BF93EF93FF9387E794E00E94000DFF914C
:101D1000EF91BF91AF919F918F917F916F915F9163
:101D20004F913F912F910F900FBE0F901F901895DC
:101D30001F920F920FB60F9211242F938F939F93A0
:101D4000EF93FF93E0918704F09188048081E09104
:101D50008D04F0918E0482FD12C0908180919004D8
:101D60008F5F8F7320919104821751F0E09190045E
:101D7000F0E0E958FB4F958F8093900401C080817B
:101D8000FF91EF919F918F912F910F900FBE0F9028
:101D90001F90189508951F920F920FB60F9211245D
:101DA0002F933F934F935F936F937F938F939F9363
:101DB000AF93BF93EF93FF93E0910B04F0910C046A
:101DC0000995FF91EF91BF91AF919F918F917F9175
:101DD0006F915F914F913F912F910F900FBE0F9098
:101DE0001F901895CF92DF92EF92FF920F931F935F
:101DF000CF93DF93EC018FB7F894C0900D04D0908F
:101E00000E04E0900F04F09010048FBF8B858823A0
:101E100059F089859A8502979A87898789859A8555
:101E200097FF02C01A86198688810E948D172B8120
:101E300030E08217930711F413E001C010E08981AC
:101E40000E948D172B8130E08217930711F481E0F7
:101E500018278E819F81811B80FF12C0212F110FB7
:101E6000330B3F832E832C813D818270082E000C22
:101E7000990B0197820F931F9D838C8381E001C092
:101E800080E09B85992361F0882351F089859A85AC
:101E9000883E9B4028F489859A8549969A87898748
:101EA0008A81882309F45BC04A895B896C897D89B2
:101EB00097018601041B150B260B370B0A30110501
:101EC0002105310508F44BC0CA8ADB8AEC8AFD8AF9
:101ED0000E948D172B8130E08217930761F48F8564
:101EE00098890196988B8F878937910520F083E038
:101EF00090E09D878C878A810E948D173B8121E02D
:101F0000232730E082179307F9F48F859889892B6E
:101F1000C9F08C859D85039719F484E090E007C093
:101F20008989823040F08C3368F486E090E09D87A8
:101F30008C87198A07C08E85811102C081E001C09B
:101F40008CE3898B188A1F868989882341F0825007
:101F5000898B811104C085E090E09D878C87DF919B
:101F6000CF911F910F91FF90EF90DF90CF90089548
:101F7000CF93C42FFC018081806291E09093530441
:101F800080937504109254041092760484E195E0D5
:101F90000E94280E6C2F84E195E00E94280E81E0BB
:101FA000CF910C945C15CF93DF93EC018881806214
:101FB00091E090935304809375041092540410920E
:101FC000760484E195E00E94280E81E00E945C1571
:101FD000809152048111FCCF888191E0909352044A
:101FE000909351042FEF2093500410924F041092BD
:101FF0004E0490932D0490912D048062880F892BBC
:1020000080932D0480912C04813061F410922C0473
:1020100080912D048093BB008091BC0083FDF8CF9C
:1020200085EC01C085EE8093BC0080915204813024
:10203000E1F380914F04811103C090914F0401C0DE
:1020400091E0AEE2B4E0E1EEF3E080E0891721F048
:102050002D9121938F5FFACF10920604809305048F
:1020600084E195E00E94DF0DDF91CF910895CF923A
:10207000DF92EF92FF920F931F93CF93DF93EC01C8
:10208000162F042F898D8F3F01F1683008F064C04E
:102090006A9669E0CE010E94D30F41E050E001C092
:1020A000440F1A95EAF7013011F4482B02C040950D
:1020B000482369E0CE01DF91CF911F910F91FF90EE
:1020C000EF90DF90CF900C94B80F8D898F3FC1F1C6
:1020D000488D013049F421E030E001C0220F6A95BB
:1020E000EAF7242B288F09C081E090E001C0880F17
:1020F0006A95EAF780958423888F60E08F890E9433
:10210000B617E88CDD88CE8807E010E0F12CB70127
:10211000002E02C0759567950A94E2F761708C2DC8
:102120000E94B61761E08D2D0E94B61760E08D2DDC
:102130000E94B6170150110950F761E08F8902C063
:10214000642F812FDF91CF911F910F91FF90EF901E
:10215000DF90CF900C94B617DF91CF911F910F9124
:10216000FF90EF90DF90CF900895CF93DF93EC0135
:1021700040E06E810E94371041E06E81CE010E94E6
:10218000371040E06E81CE010E9437108BE891E05D
:102190000197F1F7DF91CF910895AF92BF92CF925F
:1021A000DF92EF92FF920F931F93CF93DF93EC0197
:1021B000898D8E01095F1F4FC62ED12C8F3F09F4E8
:1021C00064C05E018AE1A80EB11C69E0C5010E94ED
:1021D000D30FF80120E030E061E070E09191EE244F
:1021E000E394F12CAB01092E01C0440F0A94EAF7E5
:1021F00040958423A601022E02C0559547950A9466
:10220000E2F74170552701C0440F9A95EAF7842BF5
:102210002F5F3F4F2430310509F7A7010E8002C020
:10222000440F551F0A94E2F7142F10951823412FDD
:1022300069E0C5010E94B80FC7010E8002C0880F77
:10224000991F0A94E2F7182B412F69E0C5010E94FB
:10225000B80F0E8002C0EE0CFF1C0A94E2F7E09467
:102260004E2D412369E0C5010E94B80F8BE891E033
:102270000197F1F7DF91CF911F910F91FF90EF90B0
:10228000DF90CF90BF90AF900895E12CF12C5801D2
:10229000F80161918F01CE010E94D919A6010E2C7F
:1022A00002C0559547950A94E2F74170F5016081A7
:1022B000CE010E943710FFEFEF1AFF0A84E0E81604
:1022C000F10429F7CE01DF91CF911F910F91FF907B
:1022D000EF90DF90CF90BF90AF900C94B510AF927D
:1022E000BF92CF92DF92EF92FF920F931F93CF9303
:1022F000DF93EC01F62E6C810E9437106D816F3FE9
:1023000021F040E0CE010E9437108F850F2D10E0A4
:1023100084FF2EC05E0187E0A80EB11CE12CF12CD9
:102320006501F50161915F01CE010E94D919A801F3
:102330000E2C02C0559547950A94E2F74170F601BC
:102340006081CE010E943710FFEFEF1AFF0A88E08C
:10235000E816F10429F7CE01DF91CF911F910F917B
:10236000FF90EF90DF90CF90BF90AF900C94B5109E
:10237000B80184E0759567958A95E1F7CE010E94D2
:10238000CD106F2DCE01DF91CF911F910F91FF9056
:10239000EF90DF90CF90BF90AF900C94CD1041E0C4
:1023A0000E946F1181E090E008951F920F920FB686
:1023B0000F9211242F933F934F935F936F937F93CB
:1023C0008F939F93AF93BF93EF93FF938091B90047
:1023D000887F803609F49CC068F5883209F45BC0B8
:1023E00090F4803109F454C038F4882309F4F6C01D
:1023F000883009F44DC0F6C0883109F44CC08032F1
:1024000009F45DC0EFC0803409F468C048F480333B
:1024100009F455C0883309F0E5C080935004D8C052
:10242000803509F44FC0883509F45DC0883409F05F
:10243000D9C0D6C0883909F4C7C0A8F4883709F4D0
:1024400067C038F4883609F463C0803709F460C087
:10245000C9C0883809F4B8C0803909F45FC0803831
:1024600009F0C0C05BC0803B09F486C038F4803AF4
:1024700009F466C0883A09F47FC0B4C0803C09F40E
:10248000A7C0883C09F4A4C0883B09F48AC0AAC04C
:1024900080912D0410C090914F0480914E049817A4
:1024A00070F5E0914F0481E08E0F80934F04F0E0CF
:1024B000E25DFB4F80818093BB0085EC86C08093FA
:1024C00050048EC0E0914F0481E08E0F80934F0442
:1024D0008091BB00F0E0E25DFB4F808390914F0460
:1024E00080914E046EC0E0914F0481E08E0F809386
:1024F0004F048091BB00F0E0E25DFB4F8083809150
:10250000510481116DC081E080932C0484EA61C084
:1025100083E0809352041092E003CFCF8091E003D8
:10252000803208F051C0E091E00381E08E0F80938B
:10253000E0038091BB00F0E0E054FC4F8083BDCF0E
:1025400085EC8093BC00109252048091E0038032AD
:1025500030F4E091E003F0E0E054FC4F1082609131
:10256000E00370E0E0910104F091020480EC93E05C
:1025700009951092E00336C084E0809352041092D3
:10258000BF031092BE03E0910304F0910404099587
:102590008091BE03811105C081E08093BE0310923B
:1025A0009E03E091BF0381E08E0F8093BF03F0E0B4
:1025B000E256FC4F80818093BB009091BF038091D5
:1025C000BE03981708F479CF85E88093BC000AC051
:1025D00085EC8093BC001092520404C01092500409
:1025E0000E949B0DFF91EF91BF91AF919F918F91B1
:1025F0007F916F915F914F913F912F910F900FBEFF
:102600000F901F901895CF92DF92EF92FF920F9349
:102610001F93CF93DF936C017A018B01C0E0D0E070
:10262000CE15DF0581F0D8016D918D01D601ED91B8
:10263000FC910190F081E02DC6010995892B11F0E4
:102640002196EECF7E01C701DF91CF911F910F91AF
:10265000FF90EF90DF90CF9008950E94EF273FB753
:10266000F8948091130490911404A0911504B091F2
:10267000160426B5A89B05C02F3F19F00196A11D91
:10268000B11D3FBFBA2FA92F982F8827820F911D08
:10269000A11DB11DBC01CD0142E0660F771F881F4F
:1026A000991F4A95D1F708951F920F920FB60F9276
:1026B00011242F933F938F939F93AF93BF93809158
:1026C0000D0490910E04A0910F04B091100430916C
:1026D000120423E0230F2D3720F40196A11DB11D14
:1026E00005C026E8230F0296A11DB11D20931204F8
:1026F00080930D0490930E04A0930F04B0931004E4
:102700008091130490911404A0911504B0911604C3
:102710000196A11DB11D8093130490931404A093FE
:102720001504B0931604BF91AF919F918F913F9183
:102730002F910F900FBE0F901F901895CF93DF939E
:10274000EC0188819981009711F00E94A0261982DE
:1027500018821D821C821B821A82DF91CF910895FC
:10276000EF92FF920F931F93CF93DF93EC017B01C6
:102770008A0188819981009729F02A813B81241759
:102780003507B0F4B8016F5F7F4F0E94292700978B
:1027900059F0998388831B830A832C813D81232BE5
:1027A00039F4FC01108204C0CE010E949E1307C0C0
:1027B0001D830C83B701888199810E94FD27CE017A
:1027C000DF91CF911F910F91FF90EF900895FC0141
:1027D0001182108213821282158214826115710592
:1027E00051F0FB0101900020E9F73197AF01461B42
:1027F000570B0C94B01308958F929F92AF92BF9293
:10280000EF92FF920F931F93CF93DF93CDB7DEB775
:10281000A1970FB6F894DEBF0FBECDBF7C01FA01C1
:10282000CB0119A2223008F42AE08E010F5D1F4F60
:10283000822E912CA12CB12CBF01A50194010E94E4
:10284000C125F901CA01015011096A3014F4605D13
:1028500001C0695CD8016C93232B242B252B61F7D5
:10286000B801C7010E945D0EA1960FB6F894DEBFB5
:102870000FBECDBFDF91CF911F910F91FF90EF90D1
:10288000BF90AF909F908F900895DC01ED91FC91E7
:102890000190F081E02D09947F928F929F92AF92E8
:1028A000BF92CF92DF92EF92FF920F931F93CF933D
:1028B000DF938C016A017B01722E9A01AB01C70183
:1028C000B6010E94BC25882319F06BE572E027C091
:1028D00046015701E894B7F82FEF3FEF4FE75FE766
:1028E000C501B4010E94BC2581110DC02FEF3FEF3F
:1028F0004FE75FE7C501B4010E94252318161CF4B9
:102900006FE572E00CC02FEF3FEF4FE75FE4C701C8
:10291000B6010E94B725181694F463E672E0C80168
:10292000DF91CF911F910F91FF90EF90DF90CF90AB
:10293000BF90AF909F908F907F900C945D0E2FEF83
:102940003FEF4FE75FECC701B6010E94252387FDEB
:10295000E4CF20E030E0A901C701B6010E942523A1
:1029600087FF0AC06DE2C8010E944514EC01F7FA26
:10297000F094F7F8F09402C0C0E0D0E0B12C60E031
:1029800070E080E09FE37B1441F020E030E040E223
:1029900051E40E940F25B394F6CFA70196010E943F
:1029A000A3246B017C010E9488254B015C012AE075
:1029B000AB01BC01C8010E94FC13C80FD91F7720CE
:1029C000C1F1C501B4010E942A239B01AC01C701DA
:1029D000B6010E94A2246B017C016EE2C8010E9434
:1029E0004514C80FD91F20E030E040E251E4C70190
:1029F000B6010E948B234B015C010E9488256B016C
:102A0000E12CF12C2AE0B701A601C8010E94FC13B9
:102A1000C80FD91FC701B6010E942A239B01AC0130
:102A2000C501B4010E94A2246B017C017A9471104B
:102A3000DACFCE01DF91CF911F910F91FF90EF90F0
:102A4000DF90CF90BF90AF909F908F907F90089530
:102A50000C945D0E833081F028F4813099F082303F
:102A6000A1F008958730A9F08830B9F08430D1F40E
:102A7000809180008F7D03C0809180008F7780934C
:102A80008000089584B58F7702C084B58F7D84BDA2
:102A900008958091B0008F7703C08091B0008F7D42
:102AA0008093B0000895FC0144815581608171815B
:102AB00084E796E00C940313282F3091760431328A
:102AC00008F04AC0809152048111FCCF90917504A6
:102AD00042E040935204209351042FEF209350047E
:102AE00010924F0430934E04E5E5F4E0AEE2B4E01A
:102AF00020E0321721F041914D932F5FFACF1092D1
:102B00002D0420912D04990F922B90932D049091D8
:102B10002C04913061F410922C0490912D04909328
:102B2000BB009091BC0093FDF8CF95EC01C095EEF1
:102B30009093BC00909152049230E1F39091500434
:102B40009F3F79F080915004803241F08091500491
:102B5000803331F084E005C081E003C082E001C031
:102B600083E0109254041092760410925304089556
:102B70001F93CF93DF93EC01162F60E00E94D30FD9
:102B800041E050E001C0440F1A95EAF74095482310
:102B900060E0CE01DF91CF911F910C94B80F40E01F
:102BA000682F84E796E00C946F11CF93DF93CDB735
:102BB000DEB728970FB6F894DEBF0FBECDBF98E002
:102BC000E4E1F1E0DE01119601900D929A95E1F7B2
:102BD00090918706961710F46FEF690FFE013196FA
:102BE000E60FF11DE60FF11D9081890F8068289690
:102BF0000FB6F894DEBF0FBECDBFDF91CF910C941E
:102C0000CF15682F80E00E94D51567E672E084E753
:102C100096E00C94281581E00E94CF158BE39FE18C
:102C20000197F1F708950C945315CF92DF92EF922C
:102C3000FF920F931F93CF93DF9377FF1DC06A011D
:102C40007B01EC016DE20E9445148C01442755275D
:102C5000BA014C195D096E097F092AE0CE010E9474
:102C6000FC13800F911FDF91CF911F910F91FF9067
:102C7000EF90DF90CF9008952AE0DF91CF911F91E0
:102C80000F91FF90EF90DF90CF900C94FC130F9377
:102C90001F93CF93DF938C01EB0181E090E00E94C2
:102CA000011661E080E00E94D515C8010E9453150D
:102CB000AE01DD0F660B770B84E796E0DF91CF91D5
:102CC0001F910F910C941516CF92DF92EF92FF9205
:102CD0000F931F93CF93C82F8B0169017A010E9434
:102CE00001166C2F80E00E94D515C8010E94531573
:102CF00024E0B701A60184E796E0CF911F910F91E0
:102D0000FF90EF90DF90CF900C944C140F931F9393
:102D1000CF93C82F8B010E9401166C2F80E00E9478
:102D2000D515C801CF911F910F910C945315CF92D7
:102D3000DF92EF92FF92CF93C82F6A017B010E942E
:102D400001166C2F83E00E94D51524E0B701A6017F
:102D500084E796E0CF91FF90EF90DF90CF900C94B6
:102D60004C148F929F92AF92BF92CF92DF92EF92CC
:102D7000FF920F931F93CF93C82F4A015B01680105
:102D800079010E9401166C2F80E00E94D51524E085
:102D9000B501A40184E796E00E944C146C2F8AE0F0
:102DA0000E94D51524E0B701A60184E796E0CF91F3
:102DB0001F910F91FF90EF90DF90CF90BF90AF9059
:102DC0009F908F900C944C14CF93DF93EC010E9452
:102DD0000B1660E080E00E94D515CE010E945315CD
:102DE00061E080E0DF91CF910C94D515CF93DF9314
:102DF000EC0161E080E00E94D515CE010E945315E0
:102E000063E080E00E94D51567E174E084E796E016
:102E1000DF91CF910C942815CF92DF92EF92FF9221
:102E20006A017B010E94531562E080E00E94D51583
:102E300066E772E084E796E00E94281522E0B70179
:102E4000A60184E796E00E944C1463E080E0FF90C6
:102E5000EF90DF90CF900C94D515CF93DF93EC01DA
:102E600060E080E00E94D515CE010E94531563E01A
:102E700080E00E94D51567E174E084E796E0DF9179
:102E8000CF910C942815A0914206B0914306189654
:102E90008D919C911997FC012481222341F001908E
:102EA000F081E02D0680F781E02D60E008C0ED9113
:102EB000FC9111970680F781E02D60E0CD01099427
:102EC00060914206709143066115710559F0809139
:102ED000440690914506DC01ED91FC910190F08152
:102EE000E02D09940895FC01808191810C94A02625
:102EF000CF93DF93AB01BC0122E087E794E00E940F
:102F00004C14EC016EED71E087E794E00E945D0ED9
:102F10008C0F9D1FDF91CF910895CF93DF93282FC2
:102F200030E0F901E657FD4F8491F901EA58FD4F71
:102F3000D491F901EE59FD4FC491CC2391F0811148
:102F40000E942A15EC2FF0E0EE0FFF1FE85AFD4F0C
:102F5000A591B491EC91ED2381E090E021F480E023
:102F600002C080E090E0DF91CF9108951F93CF934E
:102F7000DF93282F30E0F901E657FD4F8491F901E6
:102F8000EA58FD4FD491F901EE59FD4FC491CC237D
:102F9000C1F0162F81110E942A15EC2FF0E0EE0FE0
:102FA000FF1FE25BFD4FA591B4919FB7F8941111FB
:102FB00004C08C91D095D82302C0EC91DE2BDC9319
:102FC0009FBFDF91CF911F91089561E080914A06E4
:102FD0000C94B61780914C06811105C060E0809179
:102FE0004A060C94B61708950F931F93CF93DF935F
:102FF0000E94EA1761E0809148060E94B617C0E07F
:10300000D0E00BEC17E061E0809146060E94B61715
:10301000C8010197F1F760E0809146060E94B6175B
:10302000C8010197F1F72196C03283E0D80759F71C
:10303000DF91CF911F910F910C94E517FF920F93A1
:103040001F93CF93DF93F82E062FC7E0D0E010E058
:1030500061E0802F0E94B6178F2D0E948D170C2ED5
:1030600001C0880F0A94EAF7182B60E0802F0E94B5
:10307000B617219768F7812FDF91CF911F910F919C
:10308000FF900895FF920F931F93CF93DF9380914A
:103090005B060E948D17892BD1F760915A068091AB
:1030A0005B060E941E18C82F60915A0680915B062D
:1030B0000E941E18D82F60915A0680915B060E94CC
:1030C0001E18F82E00E010E080915C0690E00817D2
:1030D000190768F461E080915A060E94B61760E013
:1030E00080915A060E94B6170F5F1F4FEDCF8D2FAC
:1030F00090E0A0E0B0E0BA2FA92F982F8827AC2B42
:10310000AC01BD014F298C2F880F880B90E0A0E007
:10311000B0E0B82FAA27992788278A019B01082B9E
:10312000192B2A2B3B2BC901B801DF91CF911F919D
:103130000F91FF900895CF92DF92EF92FF92CF937D
:10314000CAE0C12CD12C76010E944218C60ED71EAF
:10315000E81EF91EC150C1F7C701B6012AE030E0F0
:1031600040E050E00E94E325CA01B9010E942C23EF
:103170000E94812560935D0670935E0680935F06D2
:1031800090936006CF91FF90EF90DF90CF900895DD
:103190000F931F93CF93DF930E944218C8E5D6E0A8
:1031A0000D811E812F813885601B710B820B930B63
:1031B0000E942C2329853A854B855C850E940F252A
:1031C000DF91CF911F910F9108958F929F92AF92AF
:1031D000BF92CF92DF92EF92FF92CF93DF939B014A
:1031E000AC01A0E5B0E00E9451244B015C010E94BB
:1031F000EA1760E0809148060E94B617C12CD12CD6
:103200007601CBECD7E08C149D04AE04BF04B1F082
:1032100061E0809146060E94B617CE010197F1F752
:1032200060E0809146060E94B617CE010197F1F743
:103230008FEFC81AD80AE80AF80AE5CFDF91CF91D4
:10324000FF90EF90DF90CF90BF90AF909F908F90C6
:103250000C94E5178F929F92AF92BF92CF92DF921C
:10326000EF92FF92CF93DF93EA016B017C0183E041
:10327000CC0CDD1CEE1CFF1C8A95D1F70E94EA17CE
:10328000CF3F8FEFD80731F560E0809148060E946C
:10329000B617812C912C5401CBECD7E0C814D9047B
:1032A000EA04FB0409F43DC061E0809146060E94F7
:1032B000B617CE010197F1F760E0809146060E94B3
:1032C000B617CE010197F1F78FEF881A980AA80A6E
:1032D000B80AE4CF219729F561E0809148060E9461
:1032E000B617812C912C5401CBECD7E0C814D9042B
:1032F000EA04FB04B1F061E0809146060E94B61733
:10330000CE010197F1F760E0809146060E94B61762
:10331000CE010197F1F78FEF881A980AA80AB80A28
:10332000E5CFDF91CF91FF90EF90DF90CF90BF90EE
:10333000AF909F908F900C94E517CF93DF9390E020
:10334000FC01EA58FD4F2491FC01EE59FD4F849198
:10335000882361F190E0880F991FFC01EC5BFD4F21
:10336000C591D491FC01E25BFD4FA591B49161112F
:1033700009C09FB7F8948881209582238883EC91B7
:103380002E230BC0623061F49FB7F8948881322FEE
:10339000309583238883EC912E2B2C939FBF06C0FE
:1033A0008FB7F894E8812E2B28838FBFDF91CF91C0
:1033B0000895FC01962F818D8F3F31F0683058F4CD
:1033C000CF014A960C94B81585898F3F21F461E0AE
:1033D000892F0C949D190895CF93DF93EC01862FCC
:1033E000688349839FEF9A831B821D821C821F8200
:1033F0001E8291E098871A8619869B871D861C86F7
:103400009E87188A1F86198A1A8A1B8A1C8A1D8A17
:1034100062E00E949D1962E089810E949D1962E02C
:103420008A810E949D1988810E948D172B8130E02E
:103430008217930721F483E090E09F838E83898134
:103440000E948D172B8130E08217930731F48E8113
:103450009F8121E082279F838E83DF91CF91089502
:103460008F929F92AF92BF92CF92DF92EF92FF9294
:103470006B017C010E942F134B015C01C114D1042C
:10348000E104F104F1F00E942F13DC01CB01881953
:103490009909AA09BB09883E9340A105B10570F3BB
:1034A00021E0C21AD108E108F10888EE880E83E015
:1034B000981EA11CB11CC114D104E104F10419F738
:1034C000DDCFFF90EF90DF90CF90BF90AF909F90B7
:1034D0008F900895789484B5826084BD84B58160AE
:1034E00084BD85B5826085BD85B5816085BD8091CF
:1034F0006E00816080936E00109281008091810047
:10350000826080938100809181008160809381003E
:10351000809180008160809380008091B100846000
:103520008093B1008091B00081608093B000809161
:103530007A00846080937A0080917A008260809320
:103540007A0080917A00816080937A0080917A007D
:10355000806880937A001092C100E0918704F09116
:10356000880482E08083E0918304F09184041082D7
:10357000E0918504F09186048FEC808310928F0493
:10358000E0918B04F0918C0486E08083E0918904C3
:10359000F0918A04808180618083E0918904F091B8
:1035A0008A04808188608083E0918904F0918A0494
:1035B000808180688083E0918904F0918A04808111
:1035C0008F7D808380E1809381001092800080E471
:1035D0009FE1909387008093860081E18093810032
:1035E00088E794E090930C0480930B04C1E0C093AF
:1035F0006F0086E190E00E9408268C0143E06EE0B7
:103600000E94EC1910930A040093090486E190E0EB
:103610000E9408268C0142E06FE00E94EC19109392
:1036200008040093070460E086E00E949D1960E0B2
:1036300084E00E949D1960E085E00E949D198091C0
:103640008D068F3F09F4A7C0877080938E06109275
:1036500006041092050410925404109276041092FD
:103660005204C093510410922C0461E082E10E9444
:10367000B61761E083E10E94B6178091B9008E7F92
:103680008093B9008091B9008D7F8093B90088E460
:103690008093B80085E48093BC008DEC9DE090930E
:1036A0000404809303048EEC9DE0909302048093C5
:1036B000010480918E068062C09353048093750448
:1036C000109254041092760460E084E195E00E9428
:1036D000280E6FEF84E195E00E94280E60E084E1FF
:1036E00095E00E94280E60E084E195E00E94280E9B
:1036F00060E084E195E00E94280E60E084E195E0BE
:103700000E94280E60E084E195E00E94280E60E0AF
:1037100084E195E00E94280E60E084E195E00E943B
:10372000280E60E084E195E00E94280E60E084E1CC
:1037300095E00E94280E81E00E945C1567E08EE80B
:1037400096E00E94B81569E08EE896E00E94D30FDB
:10375000482F406869E08EE896E00E94B80FCBE7FA
:10376000D6E0699184E796E00E94D91926E0CF3728
:10377000D207B9F760917806683020F48EE896E0B9
:103780000E94B81560917A06683060F58EE896E080
:103790000E94B81527C08091890661E08F3F91F0A3
:1037A00080918A060E949D1961E0809189060E949D
:1037B0009D1961E080918B060E949D1980E880939D
:1037C0008C0610C0809178060E949D198091790620
:1037D0008F3F19F061E00E949D1961E080917A06A7
:1037E0000E949D198091830688608093830683E000
:1037F00080938706109288068BE39DE00197F1F78E
:1038000040E06091780684E796E00E94371040E03F
:1038100060917A0684E796E00E94371060917906FD
:103820006F3F29F040E084E796E00E9437108091D6
:10383000830684FD20C063E084E796E00E94CD10FB
:10384000CBE4D6E4CE010197F1F763E084E796E09C
:103850000E94CD102197F1F763E084E796E00E9483
:10386000CD1083E592E00197F1F762E084E796E0FE
:103870000E94CD1015C080620E94CF158BE496E4A3
:103880000197F1F78091830680620E94CF1583E54E
:1038900092E00197F1F78091830680620E94CF1534
:1038A0008091830680620E94CF1584E08093840615
:1038B0008CE00E94CF150E940B1682E08093850653
:1038C00086E00E94CF15C0914006D09141066FE27C
:1038D00076E0CE010E948E0CD0933C06C0933B064E
:1038E00064E176E08FE296E00E948E0C69EF75E06D
:1038F0008FE296E00E948E0C6EED75E08FE296E00E
:103900000E948E0C66ED75E08FE296E00E948E0CB0
:10391000C0914006D091410665EC75E0CE010E9451
:103920008E0CD093D205C093D1056AEA75E085EC80
:1039300095E00E948E0C6FE875E085EC95E00E94A2
:103940008E0C64E775E085EC95E00E948E0C6CE6C9
:1039500075E085EC95E00E948E0CC0914006D091F8
:1039600041066BE575E0CE010E948E0CD093680590
:10397000C093670563E575E08BE595E00E948E0CCA
:103980006BE475E08BE595E00E948E0C63E475E0D6
:103990008BE595E00E948E0C6BE375E08BE595E07E
:1039A0000E948E0C60E275E08BE595E00E948E0C23
:1039B0000E946017C1E0D7E713E70DE28BE2F82E13
:1039C00094E6E92E21E6D22E80915106909152067E
:1039D000893E934084F00E94C81860934D0670930E
:1039E0004E0680934F069093500610925206109206
:1039F0005106C093530680917006909171068D3FD9
:103A00009F4F34F4D09311041092710610927006F7
:103A10008091700690917106049734F01093110410
:103A200010927106109270068091690690916A0654
:103A30008D3F9F4F34F40093110410926A06109248
:103A400069068091690690916A06049734F0F092B5
:103A5000110410926A061092690680910B01882366
:103A600021F0E092110410920B018091070188234C
:103A700021F0D09211041092070180911104882343
:103A800009F49BC0813691F13CF48B3209F45EC09D
:103A90008D3209F475C08FC0833749F0873721F024
:103AA000843609F088C030C00E9443171CC0A09122
:103AB0004206B091430618968D919C911997FC018E
:103AC0002481222339F00190F081E02D0280F381DE
:103AD000E02D68C0ED91FC9111970280F381E02DFB
:103AE00060E0CD0109950E94601765C0E091420633
:103AF000F09143068091400690914106E817F9073E
:103B000091F3848595851DC0E0914206F0914306AE
:103B10008685882341F3878522859385E22FF92FB7
:103B2000E80FF11DE80FF11D808191810097D9F216
:103B3000DC01ED91FC910484F585E02D0995009759
:103B400091F29093430680934206CDCFA091420616
:103B5000B091430618968D919C911997FC01248190
:103B6000222339F00190F081E02D0480F581E02DD1
:103B700019C0ED91FC9111970480F581E02DB0CF33
:103B8000A0914206B091430618968D919C91199789
:103B9000FC012481222341F00190F081E02D00847A
:103BA000F185E02D60E09ECFED91FC9111970084AE
:103BB000F185E02D95CF109211040E94910D04CF54
:103BC0003F924F925F926F927F928F929F92AF92AD
:103BD000BF92CF92DF92EF92FF920F931F93CF93FA
:103BE000DF93E7E7F4E01382128288EE93E0A0E02F
:103BF000B0E084839583A683B7832EE231E03183DE
:103C0000208325EC30E03587248724EC30E03787AB
:103C1000268720EC30E0318B208B21EC30E0338B99
:103C2000228B22EC30E0358B248B26EC30E0378B76
:103C3000268B118E128E138E148EE4E1F5E0138222
:103C4000128284839583A683B78380E491E0918375
:103C50008083ECE6F6E08FEF9FEF9183808333243F
:103C600033943682E5E6F6E0918380833682C8E5B8
:103C7000D6E088E891E0998388831D821E821F82A6
:103C80001886C12CD12C80E8E82E8FE3F82EC98647
:103C9000DA86EB86FC8688E08A8387E08B8361E0A6
:103CA00088E00E949D1960E08B810E949D193C82F2
:103CB00060E08A810E94B6170E944218EDE4F6E0A7
:103CC000368280E09EEDA8E2B7E487839087A187E3
:103CD000B287C6E4D6E01E8283E190E099838883B0
:103CE00082E190E09B838A8381E190E09D838C83D5
:103CF00061E083E10E949D1961E08A810E949D1923
:103D000061E08C810E949D1961E088810E94B61754
:103D100061E08A810E94B61761E08C810E94B6172B
:103D200081E190E00E940826FC0180EE91E09383FF
:103D30008283148215821782168266E771E071838E
:103D40006083118610861386128615861486168661
:103D50001786108AA0E4B6E01196FC93EE931396B2
:103D6000FC93EE9312978CE091E015969C938E93C2
:103D70001497EFE2F6E08CE792E09383828314825B
:103D800015821782168271836083118610861386CE
:103D900012861586148616861786108AE4E1F6E0E8
:103DA00081E992E0938382831482158217821682BE
:103DB00082E591E09183808321E3208709E21CE57D
:103DC0002FE23FE301871287238734872DEC822E71
:103DD0002CEC922EA92C2DE3B22E85869686A786F2
:103DE000B08AC18AD28AE38AF48A858A968AA78AA7
:103DF000B08E4FEB53E0528F418FE9EFF5E025EAAB
:103E000032E03383228314821582178216829183D3
:103E1000808322E3208708E411EE2AEF3FE3018745
:103E200012872387348700E010E020EC3FE305870A
:103E300016872787308B00E010E020E230E4018B0A
:103E4000128B238B348B858A968AA78AB08E528FE9
:103E5000418FEEEDF5E029EB32E0338322831482CB
:103E60001582178216829183808323E3208709EDD0
:103E70001EEC2BEA30E4018712872387348700E0A9
:103E800010E020E930E4058716872787308B00E0B3
:103E900010E020EB30E4018B128B238B348B858A6E
:103EA000968AA78AB08E528F418FE6EDF5E0ADEC91
:103EB000B2E0B383A2831482158222EB38E0378309
:103EC000268324E631E031832083E5ECF5E00AED3A
:103ED00012E0138302831482158217821682718383
:103EE00060831186108613861286158614861686C0
:103EF0001786108AEAEAF5E00FEE12E013830283D8
:103F00001482158217821682918380831EE51087A2
:103F10001186128613861486158616861786108AD1
:103F2000412C512CC0EA6C2EC0E47C2E418A528A6E
:103F3000638A748A858A968AA78AB08E528F418F47
:103F4000EFE8F5E003E013E01383028314821582A7
:103F5000178216829183808316E710878186928666
:103F6000A386B486C586D686E786F08A418A528AB9
:103F7000638A748A858A968AA78AB08E528F418F07
:103F8000E4E7F5E047E153E053834283148215826E
:103F9000178216829183808343E74087C186D28649
:103FA000E386F486C586D686E786F08A812C912C36
:103FB000D0E2AD2ED1E4BD2E818A928AA38AB48A42
:103FC000C58AD68AE78AF08E4EEF53E0528F418F32
:103FD000ECE6F5E0B383A28314821582A4EFB4E08B
:103FE000B783A68331832083EBE5F5E0ABE2B3E052
:103FF000B383A28314821582178216827183608331
:1040000011861086138612861586148616861786E4
:10401000108AE3E5F5E06EE373E073836283148254
:10402000158260E574E07783668331832083EBE457
:10403000F5E062E573E073836283148215826AECB3
:1040400074E07783668331832083E3E4F5E066E6FA
:1040500073E0738362831482158262E574E0778370
:10406000668331832083EBE3F5E06AE773E07383D3
:1040700062831482158261EE71E0778366833183F7
:104080002083E0E2F5E02EE833E0338322831482DC
:1040900015822FE53BE0378326839183808386E674
:1040A0008087C186D286E386F486C586D686E78673
:1040B000F08A80E090E0A0EFB1E4818B928BA38B3B
:1040C000B48BC58AD68AE78AF08E528F418FE4E797
:1040D000F6E01382128280E991E0918380838FEF72
:1040E000818F17863482858382E0868386E087838A
:1040F00085E0808784E0818783E082878CE0868BFF
:104100008DE0858B8BE0878B108EDF91CF911F9197
:104110000F91FF90EF90DF90CF90BF90AF909F9066
:104120008F907F906F905F904F903F900895EF92A7
:104130000F931F93CF93DF93E80147FD02C034E054
:1041400001C034E1042E000C550B57FF03C05195FC
:1041500041955109E32E022F242FAE010E94E32046
:10416000CE01DF91CF911F910F91EF900895FB0148
:10417000DC0105900D920020E1F70895BB274A303D
:1041800031F4992322F4BDE2909581959F4F0C94D0
:10419000CA20BB27FB015527AA27880F991FAA1FF2
:1041A000A41710F0A41B83955051B9F7A05DAA3352
:1041B00008F0A95DA193009779F7B111B19311921D
:1041C000CB010C941523A9E0B0E0E9EEF0E20C94E9
:1041D00062246A01122FB02E2BE3201720F0FF2457
:1041E000F394F00E02C02CE3F22E0F2D27E0AE0167
:1041F0004F5F5F4F0E943D22BC014981842F89702F
:10420000813031F0E1FC06C0E0FE06C090E205C05E
:104210009DE203C09BE201C090E05E2D507143FF20
:104220003CC0911102C083E001C084E0811718F402
:10423000212F281B01C020E051110BC0F601822F55
:1042400030E2882319F031938150FBCFC20ED11C8C
:1042500020E0992329F0D6019C93F60131966F0155
:10426000C6010396E2FE0AC03EE4D6013C9341E457
:1042700011964C93119712963C9306C03EE6F601B8
:10428000308341E641833283FC01322F40E2332305
:1042900009F442C041933150FACF42FF44C091111A
:1042A00002C083E001C084E0811718F4212F281B8D
:1042B00001C020E051110BC0F601822F30E28823AB
:1042C00019F031938150FBCFC20ED11C20E099230D
:1042D00029F0D6019C93F60131966F01C601039631
:1042E000E2FE0BC039E4D6013C933EE411963C93C8
:1042F000119736E412963C9307C039E6F6013083F5
:104300003EE6318336E63283FC01322F40E233232E
:1043100019F041933150FBCFFC01E20FF11D1082E7
:104320008EEF9FEFA6C021E030E0911102C020E0A7
:1043300030E0161617061CF4FB01319602C0E1E0CE
:10434000F0E02E0F3F1FBB2021F0EB2DF0E0319667
:1043500002C0E0E0F0E02E0F3F1FE12FF0E02E174B
:104360003F071CF4121B212F01C020E08E2D887105
:1043700059F4F601822F30E2882319F031938150ED
:10438000FBCFC20ED11C20E0992329F0D6019C93CB
:10439000F60131966F0151110BC0F601822F90E3A7
:1043A000882319F091938150FBCFC20ED11C20E0DD
:1043B0000F2D060F9A81342F307144FF03C09133C3
:1043C00009F40150101624F4093018F008E001C077
:1043D00001E0AB0177FF02C040E050E0FB01E41BCD
:1043E000F50BA1E0B0E0AC0FBD1FEA0FFB1F8EE2A2
:1043F000A82E4B01801A91080B2D10E01195019504
:1044000011094F3FBFEF5B0721F4D601AC92119623
:104410006D01641775072CF08416950614F48181DC
:1044200001C080E3415051093196D60111967D01BA
:104430004017510724F0D6018C936701E2CF64172F
:10444000750739F4963320F4953319F4311101C00E
:1044500081E3F6018083F701822F90E2882319F02F
:1044600091938150FBCFF701E20FF11D108280E0A4
:1044700090E02996ECE00C947E24283008F027E0A8
:104480003327DA01990F311D87FD91600096610590
:10449000710539F432602E5F3D9330E32A95E1F7E0
:1044A00008959F3F30F080387105610509F03C5F49
:1044B0003C5F3D93913008F08068911DDF93CF936E
:1044C0001F930F93FF92EF92192F987F9695E92FE4
:1044D00096959695E90FFF27EE53FF4F99273327BF
:1044E000EE24FF24A701E70105900894079428F41F
:1044F000360FE71EF81E491F511D660F771F881FD4
:10450000991F0694A1F70590079428F4E70EF81E6A
:10451000491F561FC11D770F881F991F661F0694DC
:10452000A1F70590079428F4F80E491F561FC71FDE
:10453000D11D880F991F661F771F0694A1F705905C
:10454000079420F4490F561FC71FD81F990F661FE5
:10455000771F881F0694A9F784911095177041F072
:10456000D695C79557954795F794E7941A95C1F74F
:10457000E8E6F0E068941590159135916591959174
:1045800005907FE27395E118F10A430B560BC90BB6
:10459000D009C0F7E10CF11E431F561FC91FD01DE3
:1045A0007EF4703311F48A95E6CFE894015030F030
:1045B000080F0AF40027021708F4202F2395022F72
:1045C0007A3328F079E37D932A95E9F710C07D933B
:1045D0002A9589F6069497956795379517951794B8
:1045E000E118F10A430B560BC90BD00998F023953B
:1045F0007E9173957A3308F070E37C932013B8F7BB
:104600007E9170617D9330F0839571E37D9370E3CB
:104610002A95E1F71124EF90FF900F911F91CF9110
:10462000DF91992787FD90950895DC01FC01672FA4
:1046300071917723E1F7329704C07C916D93708379
:104640006291AE17BF07C8F308950E94672308F46C
:1046500081E00895E89409C097FB3EF49095809519
:10466000709561957F4F8F4F9F4F9923A9F0F92F38
:1046700096E9BB279395F695879577956795B795B6
:10468000F111F8CFFAF4BB0F11F460FF1BC06F5F9C
:104690007F4F8F4F9F4F16C0882311F096E911C0AE
:1046A000772321F09EE8872F762F05C0662371F0CF
:1046B00096E8862F70E060E02AF09A95660F771FE3
:1046C000881FDAF7880F9695879597F90895990FBF
:1046D0000008550FAA0BE0E8FEEF16161706E807CC
:1046E000F907C0F012161306E407F50798F0621BED
:1046F000730B840B950B39F40A2661F0232B242BC2
:10470000252B21F408950A2609F4A140A6958FEFE0
:10471000811D811D08950E949E230C940F240E94E8
:10472000012438F00E94082420F0952311F00C9405
:10473000F8230C94FE2311240C9443240E9420247B
:1047400070F3959FC1F3950F50E0551F629FF001E4
:10475000729FBB27F00DB11D639FAA27F00DB11DFD
:10476000AA1F649F6627B00DA11D661F829F222786
:10477000B00DA11D621F739FB00DA11D621F839F0D
:10478000A00D611D221F749F3327A00D611D231FE3
:10479000849F600D211D822F762F6A2F11249F5731
:1047A00050409AF0F1F088234AF0EE0FFF1FBB1F34
:1047B000661F771F881F91505040A9F79E3F5105F3
:1047C00080F00C94F8230C9443245F3FE4F3983E6C
:1047D000D4F3869577956795B795F795E7959F5F9D
:1047E000C1F7FE2B880F911D9695879597F908952F
:1047F00097F99F6780E870E060E008959FEF80EC94
:10480000089500240A941616170618060906089536
:1048100000240A9412161306140605060895092E9C
:104820000394000C11F4882352F0BB0F40F4BF2B0B
:1048300011F460FF04C06F5F7F4F8F4F9F4F08954B
:1048400057FD9058440F551F59F05F3F71F0479541
:10485000880F97FB991F61F09F3F79F08795089526
:10486000121613061406551FF2CF4695F1DF08C045
:10487000161617061806991FF1CF86957105610562
:1048800008940895E894BB2766277727CB0197F90A
:104890000895F999FECF92BD81BDF89A992780B508
:1048A00008950E949324A59F900DB49F900DA49FFE
:1048B000800D911D112408952F923F924F925F9287
:1048C0006F927F928F929F92AF92BF92CF92DF9220
:1048D000EF92FF920F931F93CF93DF93CDB7DEB785
:1048E000CA1BDB0B0FB6F894DEBF0FBECDBF099419
:1048F0002A88398848885F846E847D848C849B8470
:10490000AA84B984C884DF80EE80FD800C811B817D
:10491000AA81B981CE0FD11D0FB6F894DEBF0FBEAC
:10492000CDBFED010895A29FB001B39FC001A39F29
:10493000700D811D1124911DB29F700D811D1124D8
:10494000911D08955058BB27AA270E94BA240C94A1
:104950000F240E94012438F00E94082420F039F42A
:104960009F3F19F426F40C94FE230EF4E095E7FB28
:104970000C94F823E92F0E94202458F3BA176207F9
:1049800073078407950720F079F4A6F50C94422468
:104990000EF4E0950B2EBA2FA02D0B01B90190015A
:1049A0000C01CA01A0011124FF27591B99F0593F9E
:1049B00050F4503E68F11A16F040A22F232F342FE6
:1049C0004427585FF3CF469537952795A795F04034
:1049D0005395C9F77EF41F16BA0B620B730B840B49
:1049E000BAF09150A1F0FF0FBB1F661F771F881F01
:1049F000C2F70EC0BA0F621F731F841F48F4879559
:104A000077956795B795F7959E3F08F0B0CF93954A
:104A1000880F08F09927EE0F9795879508950E94C3
:104A200023250C940F240E94082458F00E9401248E
:104A300040F029F45F3F29F00C94F82351110C94B5
:104A400043240C94FE230E94202468F39923B1F39D
:104A5000552391F3951B550BBB27AA2762177307A4
:104A6000840738F09F5F5F4F220F331F441FAA1F38
:104A7000A9F335D00E2E3AF0E0E832D091505040F4
:104A8000E695001CCAF72BD0FE2F29D0660F771FA2
:104A9000881FBB1F261737074807AB07B0E809F088
:104AA000BB0B802DBF01FF2793585F4F3AF09E3F0D
:104AB000510578F00C94F8230C9443245F3FE4F301
:104AC000983ED4F3869577956795B795F7959F5F50
:104AD000C9F7880F911D9695879597F90895E1E09C
:104AE000660F771F881FBB1F621773078407BA07FB
:104AF00020F0621B730B840BBA0BEE1F88F7E09556
:104B000008950E9488256894B1110C944324089557
:104B10000E94282488F09F5798F0B92F9927B75101
:104B2000B0F0E1F0660F771F881F991F1AF0BA9551
:104B3000C9F714C0B13091F00E944224B1E0089549
:104B40000C944224672F782F8827B85F39F0B93F3B
:104B5000CCF3869577956795B395D9F73EF4909504
:104B60008095709561957F4F8F4F9F4F08950E945C
:104B7000672308F48FEF08950E946723880B990B31
:104B80000895A1E21A2EAA1BBB1BFD010DC0AA1F8E
:104B9000BB1FEE1FFF1FA217B307E407F50720F0A6
:104BA000A21BB30BE40BF50B661F771F881F991F21
:104BB0001A9469F760957095809590959B01AC016A
:104BC000BD01CF010895052E97FB1EF400940E94AD
:104BD000FA2557FD07D00E94C12507FC03D04EF4EB
:104BE0000C94FA2550954095309521953F4F4F4FA5
:104BF0005F4F089590958095709561957F4F8F4F89
:104C00009F4F0895EE0FFF1F0590F491E02D09943A
:104C10000F931F93CF93DF938230910510F482E0BE
:104C200090E0E0919106F091920620E030E0A0E063
:104C3000B0E0309719F1408151810281138148170A
:104C40005907C8F08417950769F4109731F0129648
:104C50000C93129713961C9327C000939106109300
:104C6000920622C02115310519F04217530718F496
:104C70009A01BD01EF01DF01F801DBCF21153105FC
:104C8000F9F0281B390B2430310580F48A819B818F
:104C90006115710521F0FB019383828304C0909319
:104CA000920680939106FE01329644C0FE01E20F07
:104CB000F31F8193919322503109398328833AC09D
:104CC00020918F0630919006232B41F42091100102
:104CD000309111013093900620938F0620910E01A0
:104CE00030910F012115310541F42DB73EB74091A8
:104CF000120150911301241B350BE0918F06F091A6
:104D00009006E217F307A0F42E1B3F0B2817390774
:104D100078F0AC014E5F5F4F2417350748F04E0F17
:104D20005F1F5093900640938F068193919302C02A
:104D3000E0E0F0E0CF01DF91CF911F910F91089556
:104D4000CF93DF93009709F481C0FC01329713825F
:104D50001282A0919106B0919206109781F4208161
:104D60003181820F931F20918F0630919006281772
:104D7000390751F5F0939006E0938F0667C0ED0177
:104D800020E030E0CE17DF0740F44A815B819E01CE
:104D900041155105F1F0EA01F5CFD383C28340817B
:104DA0005181840F951FC817D90759F488819981BB
:104DB000840F951F0296918380838A819B819383C0
:104DC00082832115310529F4F0939206E093910630
:104DD0003DC0E901FB83EA8349915991C40FD51F76
:104DE000EC17FD0761F480819181840F951F029675
:104DF000E90199838883828193819B838A83E0E0A0
:104E0000F0E012968D919C911397009719F0FD0197
:104E1000DC01F7CF8D919C9111979D012E5F3F4F43
:104E2000820F931F20918F06309190062817390723
:104E300069F4309729F4109292061092910602C0FC
:104E400013821282B0939006A0938F06DF91CF91C8
:104E50000895A0E0B0E0EFE2F7E20C946024EC01EA
:104E6000009721F4CB010E940826B4C0FC01E60F94
:104E7000F71F9C0122503109E217F30708F4A8C07C
:104E8000D9010D911C91119706171707B0F0053045
:104E9000110508F49BC0C80104978617970708F40A
:104EA00095C002501109061B170B019311936D93C6
:104EB0007C93CF010E94A02689C05B01A01AB10A91
:104EC0004C01800E911EA0919106B0919206612C2A
:104ED000712CE12CF12C109709F446C08D919C9116
:104EE0001197A815B905B1F56C0142E0C40ED11CAB
:104EF000CA14DB0478F14C018A189B08640142E073
:104F0000C40ED11C1296BC9012971396AC91B5E0CA
:104F1000CB16D10440F0B282A38391828082D90162
:104F20006D937C9309C00E5F1F4F800F911FF90195
:104F300091838083EB2DFA2FE114F10431F0D70136
:104F40001396FC93EE93129741C0F0939206E09370
:104F500091063CC06816790608F43C017D01129662
:104F60000D90BC91A02DB7CF80918F0690919006A7
:104F700088169906E1F466167706C8F480910E014A
:104F800090910F01009741F48DB79EB740911201A7
:104F900050911301841B950BE817F907C8F4F0939F
:104FA0009006E0938F06F901718360830FC0CB01F7
:104FB0000E9408267C01009759F0A801BE010E94BA
:104FC000F427CE010E94A026C70104C0CE0102C072
:104FD00080E090E0CDB7DEB7EEE00C947C2481E079
:104FE00090E0F8940C940428FB01DC0102C00190CD
:104FF0000D9241505040D8F70895FB01DC0101901B
:0C5000000D920020E1F70895F894FFCF16
:10500C000000010000000100000001002001000070
:10501C0093068000000040001400540000000000C3
:10502C00580C300C110CC60B9E0B00000000220D0E
:10503C000313B90C6F0DEA0CC80CDC0C000000005B
:10504C00280EFB0D580ECF0DF30DDF0DD00D00000B
:10505C000000C8028F0256021D02E401CF0DD202DD
:10506C0000000000EA02E802E802E802E802CF0DC4
:10507C00B10300000000F40264036403360336033A
:10508C00FE02B60300000000CA0E5B0E000000001A
:10509C00CF110313580E570E53746172746572203E
:1050AC007465737400302D706B743A004E756C6CB3
:1050BC0070756E6B742066756E6E6574004D616BE9
:1050CC00732076656B743A00783A200077656967CF
:1050DC0068745F726561643A2000693A20000D0AB9
:1050EC0000636F6E73745F6B3A2000737072696E3D
:1050FC00675F636F6E73745F746F743A2000203A4D
:10510C002000737072696E675F636F6E73745F619A
:10511C0076673A200056656B743A200041766C65D0
:10512C0073742020207C2020204B616C2E66616BD8
:10513C00004B616C2E2066616B746F723A20004BD1
:10514C00616C6962726572696E672066657264690A
:10515C006720004B726166743A20006E616E0069C4
:10516C006E66006F766600202020202020202020F4
:10517C002020202020202020202020002020202043
:10518C0020204B616C696272657220202020203EC9
:10519C0000202020202056656B742331205B6B6728
:1051AC005D20203E00203C20202056656B7423326D
:1051BC00205B6B675D20203E00203C202020566544
:1051CC006B742333205B6B675D20203E00203C20FA
:1051DC00202020205354415254003C202053746909
:1051EC007668657473736A656B6B2020203E0020B3
:1051FC0020204D696E2E206B72616674205B6B678C
:10520C005D3E00203C204D616B73206B72616674B7
:10521C00205B6B675D3E00203C20737465672F73C9
:10522C006A656B6B205B6D6D5D3E003C20204D61B3
:10523C006E75656C6C2073747972696E67002020D2
:10524C00204D6F746F72206F70702031306D6D2037
:10525C003E00203C204D6F746F72206E65642031CF
:10526C00306D6D203E00203C2053657474203070EE
:10527C006B74206C617374203E00203C2020416BC9
:10528C007469766572206D6F746F72203E00203CDD
:0C529C002020202020204B72616674004E
:107E0000112484B714BE81FFF0D085E080938100F7
:107E100082E08093C00088E18093C10086E0809377
:107E2000C20080E18093C4008EE0C9D0259A86E02C
:107E300020E33CEF91E0309385002093840096BBD3
:107E4000B09BFECF1D9AA8958150A9F7CC24DD24C4
:107E500088248394B5E0AB2EA1E19A2EF3E0BF2EE7
:107E6000A2D0813461F49FD0082FAFD0023811F036
:107E7000013811F484E001C083E08DD089C08234E0
:107E800011F484E103C0853419F485E0A6D080C0E4
:107E9000853579F488D0E82EFF2485D0082F10E0AE
:107EA000102F00270E291F29000F111F8ED06801E7
:107EB0006FC0863521F484E090D080E0DECF843638
:107EC00009F040C070D06FD0082F6DD080E0C81688
:107ED00080E7D80618F4F601B7BEE895C0E0D1E017
:107EE00062D089930C17E1F7F0E0CF16F0E7DF06D8
:107EF00018F0F601B7BEE89568D007B600FCFDCFD4
:107F0000A601A0E0B1E02C9130E011968C91119780
:107F100090E0982F8827822B932B1296FA010C0160
:107F200087BEE89511244E5F5F4FF1E0A038BF0790
:107F300051F7F601A7BEE89507B600FCFDCF97BE46
:107F4000E89526C08437B1F42ED02DD0F82E2BD052
:107F50003CD0F601EF2C8F010F5F1F4F84911BD097
:107F6000EA94F801C1F70894C11CD11CFA94CF0C13
:107F7000D11C0EC0853739F428D08EE10CD085E9AC
:107F80000AD08FE07ACF813511F488E018D01DD067
:107F900080E101D065CF982F8091C00085FFFCCF94
:107FA0009093C60008958091C00087FFFCCF809118
:107FB000C00084FD01C0A8958091C6000895E0E648
:107FC000F0E098E1908380830895EDDF803219F02E
:107FD00088E0F5DFFFCF84E1DECF1F93182FE3DFCA
:107FE0001150E9F7F2DF1F91089580E0E8DFEE27F6
:047FF000FF270994CA
:027FFE00040479
:0400000300007E007B
:00000001FF
