:100000000C9447010C946F010C946F010C946611D1
:100010000C9466110C9466110C946F010C946F0192
:100020000C946F010C946F010C946F010C946F0190
:100030000C946F010C9471110C946F010C946F016E
:100040000C9498010C946F010C9434110C940E11C3
:100050000C946F010C946F010C946F010C946F0160
:100060000C947C050C946F0100407A10F35A00A0A8
:10007000724E18090010A5D4E80000E87648170071
:1000800000E40B54020000CA9A3B000000E1F505B1
:10009000000080969800000040420F000000A086FB
:1000A00001000000102700000000E803000000002D
:1000B0006400000000000A000000000001000000D1
:1000C00000002C76D888DC674F0823DFC1DFAE59EB
:1000D000E1B1B796E5E3E453C63AE651997696E87E
:1000E000E6C28426EB898C9B62ED407C6FFCEFBC02
:1000F0009C9F40F2BAA56FA5F490055A2AF75C932D
:100100006B6CF9676DC11BFCE0E40D47FEF520E662
:10011000B500D0ED902E0300943577050080841E45
:10012000080000204E0A000000C80C333333330FA0
:10013000986E12831141EF8D2114893BE65516CF3D
:10014000FEE6DB18D1844B381BF77C1D901DA4BB49
:10015000E424203284725E228100C9F124ECA1E5FE
:100160003D2700000000240027002A0000000000B6
:10017000250028002B000000000023002600290095
:10018000040404040404040402020202020203033D
:100190000303030301020408102040800102040845
:1001A00010200102040810200000000800020100D5
:1001B00000030407000000000000000056656B7497
:1001C0005B6B675D7C4B6F6E73745B4E2F6D6D5D0B
:1001D0000056656B745B6B675D004E657374653AC2
:1001E00020736C697070657220666A616572005375
:1001F000746976686574206B203D2000506C6173D3
:100200007365722076656B742023004C61207665DF
:100210006B74656E2068656E676520746F6D002075
:1002200020202020202020202020202020202020CE
:1002300020202000200020202020202020202020FE
:100240002020202020207C4F4B7C002020202020BC
:1002500020202020202020202020207C4F4B7C00AC
:100260007C54427C20202020202020202020202080
:100270007C4F4B7C0060024B02360234021F020BA3
:1002800002FC01EF01DA01D101BC01005E1F112463
:100290001FBECFEFD8E0DEBFCDBF26E0AAEAB3E0B5
:1002A00001C01D92A039B207E1F713E0A0E0B1E070
:1002B000E0EFF2E502C005900D92AA3AB107D9F736
:1002C00011E0C7E4D1E004C02197FE010E94742729
:1002D000C634D107C9F70E94DA1B0C9476290C9416
:1002E00000000E9461293FB7F8948091BC0390916F
:1002F000BD03A091BE03B091BF0326B5A89B05C066
:100300002F3F19F00196A11DB11D3FBFBA2FA92F94
:10031000982F8827820F911DA11DB11DBC01CD0111
:1003200042E0660F771F881F991F4A95D1F70895FD
:100330001F920F920FB60F9211242F933F938F931A
:100340009F93AF93BF938091B6039091B703A09111
:10035000B803B091B9033091BB0323E0230F2D37CD
:1003600020F40196A11DB11D05C026E8230F0296B9
:10037000A11DB11D2093BB038093B6039093B703D7
:10038000A093B803B093B9038091BC039091BD03CF
:10039000A091BE03B091BF030196A11DB11D809332
:1003A000BC039093BD03A093BE03B093BF03BF9162
:1003B000AF919F918F913F912F910F900FBE0F9012
:1003C0001F901895CF93DF93EC0188819981009756
:1003D00011F00E941228198218821D821C821B8231
:1003E0001A82DF91CF910895EF92FF920F931F939E
:1003F000CF93DF93EC017B018A018881998100977B
:1004000029F02A813B8124173507B0F4B8016F5FCA
:100410007F4F0E949B28009759F0998388831B8304
:100420000A832C813D81232B39F4FC01108204C006
:10043000CE010E94E20107C01D830C83B7018881B1
:1004400099810E946F29CE01DF91CF911F910F9169
:10045000FF90EF900895FC011182108213821282A6
:10046000158214826115710551F0FB010190002085
:10047000E9F73197AF01461B570B0C94F40108952F
:100480007F928F929F92AF92BF92CF92DF92EF9224
:10049000FF920F931F93CF93DF938C016A017B012F
:1004A000722E9A01AB01C701B6010E942E27882344
:1004B00019F06EE971E027C046015701E894B7F8DA
:1004C0002FEF3FEF4FE75FE7C501B4010E942E27F2
:1004D00081110DC02FEF3FEF4FE75FE7C501B4017A
:1004E0000E94892418161CF462EA71E00CC02FEFF8
:1004F0003FEF4FE75FE4C701B6010E9429271816B6
:1005000094F466EA71E0C801DF91CF911F910F91D9
:10051000FF90EF90DF90CF90BF90AF909F908F9023
:100520007F900C94AE102FEF3FEF4FE75FECC701C9
:10053000B6010E94892487FDE4CF20E030E0A901C4
:10054000C701B6010E94892487FF0AC06DE2C80175
:100550000E94A710EC01F7FAF094F7F8F09402C0AB
:10056000C0E0D0E0B12C60E070E080E09FE37B145D
:1005700041F020E030E040E251E40E948126B39453
:10058000F6CFA70196010E9415266B017C010E94FF
:10059000FA264B015C012AE0AB01BC01C8010E94B4
:1005A000C310C80FD91F7720C1F1C501B4010E9443
:1005B0008E249B01AC01C701B6010E9414266B0179
:1005C0007C016EE2C8010E94A710C80FD91F20E06D
:1005D00030E040E251E4C701B6010E94EF244B0134
:1005E0005C010E94FA266B01E12CF12C2AE0B70194
:1005F000A601C8010E94C310C80FD91FC701B601C8
:100600000E948E249B01AC01C501B4010E941426F6
:100610006B017C017A947110DACFCE01DF91CF911A
:100620001F910F91FF90EF90DF90CF90BF90AF9010
:100630009F908F907F90089585ED8093BC0080916E
:10064000BC0084FDFCCF1092620408954091E20347
:10065000262F30E0240F311D21323105DCF42091AA
:1006600062042430C9F4FC0180E090E0861758F45D
:100670003091E2032191DC01AE53BC4FA30FB11DB9
:100680002C930196F3CF8091E203680F6093E2030D
:1006900080E0089581E0089582E008950895089526
:1006A0000895E091AF038091AE03E81730F4F0E0D5
:1006B000E65EFB4F808190E008958FEF9FEF0895F5
:1006C0009091AF038091AE03981750F4E92FF0E0BA
:1006D000E65EFB4F208130E09F5F9093AF0302C046
:1006E0002FEF3FEFC90108958091AE0390E0209174
:1006F000AF03821B91090895CF92DF92EF92FF9290
:100700000F931F93CF93DF937C01CB018A0120913C
:100710006304222389F0EB016B01C40ED51ECC15B6
:10072000DD0569F06991D701ED91FC910190F081AF
:10073000E02DC7010995F3CF642F0E942603C8015D
:10074000DF91CF911F910F91FF90EF90DF90CF90AD
:100750000895CF93DF931F92CDB7DEB769832091C1
:1007600063042223D1F020918604203240F021E05E
:1007700030E0FC013383228380E090E015C080915B
:100780006404E82FF0E0EB59FB4F998190838F5F71
:10079000809364048093860405C061E0CE010196D5
:1007A0000E94260381E090E00F90DF91CF910895A1
:1007B000089580E090E0089541E00E94151481E0E2
:1007C00090E00895CF92DF92EF92FF920F931F93E4
:1007D000CF93DF93EB017B0124E0E20EF11C8B0150
:1007E0006C01C61AD70AC601800F911F0E94AD2561
:1007F000F80181938F01EE15FF05A9F7CE01DF9176
:10080000CF911F910F91FF90EF90DF90CF900895BF
:100810008091B2039091B3030E9498118091B0032C
:100820009091B1030E94981169E676E08091B2033D
:100830009091B3030E948C1662E676E08091B0033B
:100840009091B1030E948C168091C0039091C103D6
:100850008C3B22E092072CF401969093C103809385
:10086000C0038091C0039091C1038C3B924084F0FF
:1008700064E071E086E090E00E94031760E071E0C0
:1008800084E090E00E9403171092C1031092C0030D
:1008900068E071E085E090E00E94031780910B0111
:1008A000882339F00E94ED0C81E080934906109274
:1008B0000B0108958F929F92AF92BF92CF92DF92D9
:1008C000EF92FF920F931F93CF93DF93CDB7DEB7D5
:1008D0002C970FB6F894DEBF0FBECDBF00E010E03E
:1008E0007801C12CD12C82E5882E88EB982E8FE1DF
:1008F000A82E82E4B82E89829A82AB82BC82BE0185
:100900006F5F7F4FC7010E943F0C89829A82AB8242
:10091000BC82BE016F5F7F4FC70104960E943F0CEF
:1009200089829A82AB82BC82BE016F5F7F4FC70112
:1009300008960E943F0C6AEA71E087E894E00E9402
:100940000C11C6010E946A0C8FEFC81AD80A8CE0FD
:10095000E80EF11C80E4C816D10469F6E12CF12CF4
:10096000BE016F5F7F4FC8010E94E203BE016B5F53
:100970007F4FC80104960E94E203BE01675F7F4F6C
:10098000C80108960E94E20369817A818B819C816B
:100990000E94800C6D817E818F8198850E94800CE1
:1009A00069857A858B859C850E94800C6FEA71E051
:1009B00087E894E00E940C11C7010E946A0C8FEF37
:1009C000E81AF80A045F1F4F80E4E816F10441F6C4
:1009D0002C960FB6F894DEBF0FBECDBFDF91CF913E
:1009E0001F910F91FF90EF90DF90CF90BF90AF904D
:1009F0009F908F900895EF92FF920F931F93CF9344
:100A0000DF93CDB7DEB7A1970FB6F894DEBF0FBE68
:100A1000CDBF7C01CB01BA01F70111821082138294
:100A20001282158214828E010F5F1F4F22E044E074
:100A30000E94FB21009769F0FC0101900020E9F77A
:100A40003197AF01481B590BBC01C7010E94F4014B
:100A500003C0C7010E94E201C701A1960FB6F89436
:100A6000DEBF0FBECDBFDF91CF911F910F91FF90E1
:100A7000EF900895EF92FF920F931F93CF93DF9320
:100A8000CDB7DEB762970FB6F894DEBF0FBECDBF0D
:100A90008C01FC0111821082138212821582148251
:100AA000CB01BA010E94F326DC01CB014AE09E0192
:100AB0002F5F3F4F7901B9010E942222F701019077
:100AC0000020E9F73197AF014E195F09B701C8015E
:100AD0000E94F401C80162960FB6F894DEBF0FBE03
:100AE000CDBFDF91CF911F910F91FF90EF900895AF
:100AF0000E940A0C0C94270C1F920F920FB60F92B3
:100B000011242F933F934F935F936F937F938F9312
:100B10009F93AF93BF93EF93FF938091B900887F2A
:100B2000803609F49CC068F5883209F45BC090F403
:100B3000803109F454C038F4882309F4F6C08830B1
:100B400009F44DC0F6C0883109F44CC0803209F474
:100B50005DC0EFC0803409F468C048F4803309F404
:100B600055C0883309F0E5C080936004D8C0803553
:100B700009F44FC0883509F45DC0883409F0D9C044
:100B8000D6C0883909F4C7C0A8F4883709F467C00B
:100B900038F4883609F463C0803709F460C0C9C0EE
:100BA000883809F4B8C0803909F45FC0803809F08A
:100BB000C0C05BC0803B09F486C038F4803A09F4B9
:100BC00066C0883A09F47FC0B4C0803C09F4A7C06D
:100BD000883C09F4A4C0883B09F48AC0AAC080916B
:100BE0003D0410C090915F0480915E04981770F5E9
:100BF000E0915F0481E08E0F80935F04F0E0E25C9F
:100C0000FB4F80818093BB0085EC86C0809360049D
:100C10008EC0E0915F0481E08E0F80935F0480912D
:100C2000BB00F0E0E25CFB4F808390915F04809119
:100C30005E046EC0E0915F0481E08E0F80935F04DC
:100C40008091BB00F0E0E25CFB4F80838091610407
:100C500081116DC081E080933C0484EA61C083E02F
:100C60008093620410920404CFCF809104048032F8
:100C700008F051C0E091040481E08E0F80930404D9
:100C80008091BB00F0E0EC51FC4F8083BDCF85EC40
:100C90008093BC001092620480910404803230F48E
:100CA000E0910404F0E0EC51FC4F108260910404E8
:100CB00070E0E091AA03F091AB0384EE93E0099514
:100CC0001092040436C084E0809362041092E3031F
:100CD0001092E203E091AC03F091AD03099580918D
:100CE000E203811105C081E08093E2031092C20308
:100CF000E091E30381E08E0F8093E303F0E0EE5395
:100D0000FC4F80818093BB009091E3038091E203CC
:100D1000981708F479CF85E88093BC000AC085EC69
:100D20008093BC001092620404C0109260040E9480
:100D30001C03FF91EF91BF91AF919F918F917F9194
:100D40006F915F914F913F912F910F900FBE0F9038
:100D50001F9018952F923F924F925F926F927F92C1
:100D60008F929F92AF92BF92CF92DF92EF92FF92BB
:100D70000F931F93CF93DF93CDB7DEB7CE50D14003
:100D80000FB6F894DEBF0FBECDBF8090B005909037
:100D9000B105A090B205B090B305809195059091F2
:100DA0009605A0919705B0919805C55FDE4F8883A1
:100DB0009983AA83BB83CB50D14040907A05509051
:100DC0007B0560907C0570907D050E94D20A65EBE2
:100DD00071E0CE0101960E942B02BE016F5F7F4F32
:100DE00081E090E00E944D0BCE0101960E943A0CEA
:100DF00081E090E00E94811665E074E0CE010196EA
:100E00000E942B02BE016F5F7F4F83E090E00E9443
:100E10004D0BCE0101960E943A0C0E94F316F894F5
:100E200080E090E0A0E8BFE380935E0690935F06C9
:100E3000A0936006B09361060E94A30D80915106B5
:100E400090915206A0915306B091540680935E068D
:100E500090935F06A0936006B093610678940E9419
:100E6000D20A62EC71E0CE0101960E942B02BE0113
:100E70006F5F7F4F80E090E00E944D0BCE010196A6
:100E80000E943A0CB501A40181E090E00E945E0B43
:100E900089E090E00E94811665E074E0CE01019641
:100EA0000E942B02BE016F5F7F4F82E090E00E94A4
:100EB0004D0BCE0101960E943A0C8091490681119A
:100EC000E7C2F89481E00E94D00D7894A5019401C6
:100ED0000E94892487FF08C062E070E080E090E013
:100EE0000E94140E10E001C011E064EF71E080E098
:100EF00090E00E945F0FF89481E00E94D00DAB015A
:100F0000BC01789483E090E00E945E0B64EF71E096
:100F100080E090E00E945F0F112379F289E090E079
:100F20000E94811665E074E0CE0101960E942B02BA
:100F3000BE016F5F7F4F82E090E00E944D0BCE01BB
:100F400001960E943A0C809149068111A1C2F89441
:100F500081E00E94D00D6B017C0178942AE037ED8E
:100F600043E25CE3C501B4010E9414269B01AC017D
:100F7000C701B6010E94892487FF03C04FEF5FEFCE
:100F800012C02AE037ED43E25CE3C501B4010E94E0
:100F900015269B01AC01C701B6010E94292718162E
:100FA00054F441E050E065E070E080E090E00E94A1
:100FB000590E10E001C011E064EF71E080E090E0B4
:100FC0000E945F0FF89481E00E94D00DAB01BC013C
:100FD000789483E090E00E945E0B6CED75E080E019
:100FE00090E00E945F0F112309F4ADCF89E090E0FB
:100FF0000E94811665E074E0CE0101960E942B02EA
:10100000BE016F5F7F4F82E090E00E944D0BCE01EA
:1010100001960E943A0C80914906811139C2F894D8
:1010200081E00E94D00D6B017C0178942FE632E1C3
:1010300043E85AE3C501B4010E9414269B01AC01A8
:10104000C701B6010E94892487FF03C04FEF5FEFFD
:1010500012C02FE632E143E85AE3C501B4010E9411
:1010600015269B01AC01C701B6010E94292718165D
:1010700054F441E050E061E070E080E090E00E94D4
:10108000590E10E001C011E064EF71E080E090E0E3
:101090000E945F0FF89481E00E94D00D6B017C01EB
:1010A0007894AB01BC0183E090E00E945E0B64EC9D
:1010B00079E080E090E00E945F0F112309F4ABCF4C
:1010C000C301B2010E94FA26C95FDE4F68837983AB
:1010D0008A839B83C750D1400E94D20A69EC71E099
:1010E000CE0101960E942B02BE016F5F7F4F81E00F
:1010F00090E00E944D0BCE0101960E943A0C81E0D7
:1011000090E00E94811665E074E0CE0101960E9495
:101110002B02BE016F5F7F4F83E090E00E944D0B7A
:10112000CE0101960E943A0C0E94F316F8940E9498
:10113000A30D78940E94D20A6AED71E0CE01019667
:101140000E942B02BE016F5F7F4F80E090E00E9403
:101150004D0BCE0101960E943A0CC55FDE4F4881CF
:1011600059816A817B81CB50D14081E090E00E941F
:101170005E0B8AE090E00E94811665E074E0CE018B
:1011800001960E942B02BE016F5F7F4F82E090E0CC
:101190000E944D0BCE0101960E943A0C212C312C5D
:1011A000812C912C540180914906811171C1A701B4
:1011B0009601C55FDE4F688179818A819B81CB5022
:1011C000D1400E94292718160CF07AC0C95FDE4F63
:1011D000688179818A819B81C750D1400E94140E19
:1011E00068EE73E080E090E00E945F0FF89481E089
:1011F0000E94D00D6B017C017894C95FDE4F68813D
:1012000079818A819B81C750D1400E948E249B01A5
:10121000AC01C501B4010E9415264B015C0129E710
:1012200039EE4CE151E4C701B6010E94EF24A5015B
:1012300094010E9481262B013C01F101EE0FFF1F5A
:10124000EE0FFF1FA1E0B0E0AC0FBD1FEA0FFB1FC8
:10125000408251826282738293018201B701A601AA
:1012600083E090E00E94780B65EE71E087E894E0FF
:101270000E940C11C501B4010E94800C69EE71E05E
:1012800087E894E00E940C11C701B6010E94800C0F
:1012900067EF71E087E894E00E940C11C1010E94A1
:1012A0006A0C6BEF71E087E894E00E940C11C301B7
:1012B000B2010E94800CBFEF2B1A3B0A10E001C064
:1012C00011E060ED77E080E090E00E945F0F112375
:1012D00009F469CF0E94D20A8E010F5F1F4F812C43
:1012E000912C5401C12CD12C7601C101032C000C8E
:1012F000AA0BBB0BC95FDE4F88839983AA83BB838C
:10130000C750D140821493040CF044C0D8014D90D2
:101310005D906D907D908D01C95FDE4F6881798110
:101320008A819B81C750D1400E9490249B01AC01CF
:10133000C301B2010E9481269B01AC01C701B60125
:101340000E9415266B017C0165E072E087E894E05D
:101350000E940C11C701B6010E94800C61E072E08E
:1013600087E894E00E940C11B501A40187E894E09D
:101370000E94DC0A68E172E087E894E00E940C11A8
:10138000C301B2010E94800CBFEF8B1A9B0AAB0A0B
:10139000BB0AB8CF6CE172E087E894E00E940C11C0
:1013A000C701B6010E94800C87E090E00E94811680
:1013B00065E074E0CE018F5F9E4F0E942B02BE015C
:1013C0006F5F7E4F80E090E00E944D0BCE018F5FFB
:1013D0009E4F0E943A0CB701A60181E090E00E9466
:1013E0005E0B88E090E00E94811665E074E0CE011B
:1013F0008F5F9E4F0E942B02BE016F5F7E4F82E087
:1014000090E00E944D0BCE018F5F9E4F0E943A0CE0
:1014100081E090E00E94811665E074E0CE018F5F6C
:101420009E4F0E942B02BE016F5F7E4F83E090E0D3
:101430000E944D0BCE018F5F9E4F0E943A0C0E947E
:10144000F3160E94D20A80914906811121C0F894B6
:1014500081E00E94D00D78942FE632E143E85AE310
:101460000E9429271816A4F40E94FC0C68EE73E071
:1014700080E090E00E945F0FF89481E00E94D00D20
:10148000AB01BC01789483E090E00E945E0BDBCF5F
:101490000E947805C25FDE4F0FB6F894DEBF0FBE24
:1014A000CDBFDF91CF911F910F91FF90EF90DF9013
:1014B000CF90BF90AF909F908F907F906F905F90F4
:1014C0004F903F902F900895833081F028F4813021
:1014D00099F08230A1F008958730A9F08830B9F0F2
:1014E0008430D1F4809180008F7D03C08091800092
:1014F0008F7780938000089584B58F7702C084B57C
:101500008F7D84BD08958091B0008F7703C0809156
:10151000B0008F7D8093B0000895FC014481558117
:101520006081718181E796E00C94990F40E0682F0B
:1015300081E796E00C941514CF93DF93CDB7DEB717
:1015400028970FB6F894DEBF0FBECDBF98E0E4E158
:10155000F1E0DE01119601900D929A95E1F79091DC
:101560008406961710F46FEF690FFE013196E60FAF
:10157000F11DE60FF11D9081890F806828960FB646
:10158000F894DEBF0FBECDBFDF91CF910C94960AC9
:10159000682F80E00E949C0A61E372E081E796E098
:1015A0000C940C1181E00E94960A8BE39FE1019755
:1015B000F1F708950C948D0ACF92DF92EF92FF928B
:1015C0000F931F93CF93DF9377FF1DC06A017B01B9
:1015D000EC016DE20E94A7108C0144275527BA0147
:1015E0004C195D096E097F092AE0CE010E94C310E3
:1015F000800F911FDF91CF911F910F91FF90EF907E
:10160000DF90CF9008952AE0DF91CF911F910F9145
:10161000FF90EF90DF90CF900C94C3100F931F9327
:10162000CF93DF938C01EB0181E090E00E94C80A28
:1016300061E080E00E949C0AC8010E948D0AAE0110
:10164000DD0F660B770B81E796E0DF91CF911F915D
:101650000F910C94DC0ACF92DF92EF92FF920F93DE
:101660001F93CF93C82F8B0169017A010E94C80A8A
:101670006C2F80E00E949C0AC8010E948D0A24E021
:10168000B701A60181E796E0CF911F910F91FF90DE
:10169000EF90DF90CF900C9440020F931F93CF9365
:1016A000C82F8B010E94C80A6C2F80E00E949C0A00
:1016B000C801CF911F910F910C948D0ACF92DF92A8
:1016C000EF92FF92CF93C82F6A017B010E94C80A54
:1016D0006C2F83E00E949C0A24E0B701A60181E7F9
:1016E00096E0CF91FF90EF90DF90CF900C94400266
:1016F0008F929F92AF92BF92CF92DF92EF92FF9222
:101700000F931F93CF93C82F4A015B0168017901A2
:101710000E94C80A6C2F80E00E949C0A24E0B50158
:10172000A40181E796E00E9440026C2F8AE00E94AB
:101730009C0A24E0B701A60181E796E0CF911F91B2
:101740000F91FF90EF90DF90CF90BF90AF909F9060
:101750008F900C944002CF93DF93EC010E94D20A49
:1017600060E080E00E949C0ACE010E948D0A61E048
:1017700080E0DF91CF910C949C0ACF93DF93EC0132
:1017800061E080E00E949C0ACE010E948D0A63E025
:1017900080E00E949C0A65E074E081E796E0DF91BA
:1017A000CF910C940C11CF92DF92EF92FF926A01CD
:1017B0007B010E948D0A62E080E00E949C0A60E446
:1017C00072E081E796E00E940C1122E0B701A601C9
:1017D00081E796E00E94400263E080E0FF90EF9096
:1017E000DF90CF900C949C0ACF93DF93EC0160E0E4
:1017F00080E00E949C0ACE010E948D0A63E080E096
:101800000E949C0A65E074E081E796E0DF91CF9149
:101810000C940C11A0913F06B091400618968D9142
:101820009C911997FC012481222341F00190F081C1
:10183000E02D0680F781E02D60E008C0ED91FC917D
:1018400011970680F781E02D60E0CD010994609149
:101850003F06709140066115710559F0809141066F
:1018600090914206DC01ED91FC910190F081E02D18
:1018700009940895FC01808191810C941228AF9203
:10188000BF92DF92EF92FF920F931F93CF93DF935C
:10189000EC017B018B015C0184E0A80EB11CF80116
:1018A000D1908F01CE010E94AD25D81621F06D2D6B
:1018B000CE010E94B5252196CA15DB0581F7C70127
:1018C000DF91CF911F910F91FF90EF90DF90BF902C
:1018D000AF900895CF93DF93AC01990F660B770B10
:1018E00087E894E00E94DC0AEC016BE971E087E88C
:1018F00094E00E94AE108C0F9D1FDF91CF91089550
:10190000CF93DF93AB01BC0122E087E894E00E9413
:101910004002EC016BE971E087E894E00E94AE10B0
:101920008C0F9D1FDF91CF910895CF93DF93282FC8
:1019300030E0F901E855FE4F8491F901EC56FE4F75
:10194000D491F901E058FE4FC491CC2391F081115C
:101950000E94640AEC2FF0E0EE0FFF1FEA58FE4FE2
:10196000A591B491EC91ED2381E090E021F480E029
:1019700002C080E090E0DF91CF9108951F93CF9354
:10198000DF93282F30E0F901E855FE4F8491F901EB
:10199000EC56FE4FD491F901E058FE4FC491CC2390
:1019A000C1F0162F81110E94640AEC2FF0E0EE0FB7
:1019B000FF1FE459FE4FA591B4919FB7F894111100
:1019C00004C08C91D095D82302C0EC91DE2BDC931F
:1019D0009FBFDF91CF911F91089561E080914706ED
:1019E0000C94BE0C80914906811105C060E0809185
:1019F00047060C94BE0C08950F931F93CF93DF936B
:101A00000E94F20C61E0809145060E94BE0CC0E08D
:101A1000D0E00BEC17E061E0809143060E94BE0C21
:101A2000C8010197F1F760E0809143060E94BE0C67
:101A3000C8010197F1F72196C03283E0D80759F722
:101A4000DF91CF911F910F910C94ED0CFF920F93AA
:101A50001F93CF93DF93F82E062FC7E0D0E010E05E
:101A600061E0802F0E94BE0C8F2D0E94950C0C2EE1
:101A700001C0880F0A94EAF7182B60E0802F0E94BB
:101A8000BE0C219768F7812FDF91CF911F910F91A5
:101A9000FF900895FF920F931F93CF93DF93809150
:101AA00058060E94950C892BD1F7609157068091BA
:101AB00058060E94260DC82F60915706809158063F
:101AC0000E94260DD82F60915706809158060E94DB
:101AD000260DF82E00E010E08091590690E00817DE
:101AE000190768F461E0809157060E94BE0C60E01F
:101AF000809157060E94BE0C0F5F1F4FEDCF8D2FB8
:101B000090E0A0E0B0E0BA2FA92F982F8827AC2B47
:101B1000AC01BD014F298C2F880F880B90E0A0E00D
:101B2000B0E0B82FAA27992788278A019B01082BA4
:101B3000192B2A2B3B2BC901B801DF91CF911F91A3
:101B40000F91FF900895CF92DF92EF92FF92CF9383
:101B5000CAE0C12CD12C76010E944A0DC60ED71EB8
:101B6000E81EF91EC150C1F7C701B6012AE030E0F6
:101B700040E050E00E945527CA01B9010E9490241C
:101B80000E94F32660935A0670935B0680935C066E
:101B900090935D06CF91FF90EF90DF90CF900895E6
:101BA000CF92DF92EF92FF920F931F93CF93DF9329
:101BB000C82FD0E0C12CD12C7601CD1741F00E9466
:101BC0004A0DC60ED71EE81EF91EDF5FF6CF2C2F7A
:101BD00030E040E050E0C701B6010E9455278091F7
:101BE0005A0690915B06A0915C06B0915D06790162
:101BF0008A01E81AF90A0A0B1B0BC801B7010E94F7
:101C0000902420915E0630915F06409160065091CD
:101C100061060E948126DF91CF911F910F91FF9065
:101C2000EF90DF90CF9008958F929F92AF92BF92E6
:101C3000CF92DF92EF92FF92CF93DF939B01AC01A3
:101C4000A0E5B0E00E94C3254B015C010E94F20CAC
:101C500060E0809145060E94BE0CC12CD12C76011B
:101C6000CBECD7E08C149D04AE04BF04B1F061E06E
:101C7000809143060E94BE0CCE010197F1F760E00F
:101C8000809143060E94BE0CCE010197F1F78FEFC1
:101C9000C81AD80AE80AF80AE5CFDF91CF91FF9079
:101CA000EF90DF90CF90BF90AF909F908F900C946B
:101CB000ED0C8F929F92AF92BF92CF92DF92EF92F4
:101CC000FF92CF93DF93EA016B017C0183E0CC0CA0
:101CD000DD1CEE1CFF1C8A95D1F70E94F20CCF3F51
:101CE0008FEFD80731F560E0809145060E94BE0C69
:101CF000812C912C5401CBECD7E0C814D904EA0410
:101D0000FB0409F43DC061E0809143060E94BE0CD3
:101D1000CE010197F1F760E0809143060E94BE0C6E
:101D2000CE010197F1F78FEF881A980AA80AB80A2E
:101D3000E4CF219729F561E0809145060E94BE0C11
:101D4000812C912C5401CBECD7E0C814D904EA04BF
:101D5000FB04B1F061E0809143060E94BE0CCE010D
:101D60000197F1F760E0809143060E94BE0CCE011E
:101D70000197F1F78FEF881A980AA80AB80AE5CFF9
:101D8000DF91CF91FF90EF90DF90CF90BF90AF9019
:101D90009F908F900C94ED0CCF93DF9390E0FC011B
:101DA000EC56FE4F2491FC01E058FE4F84918823AD
:101DB00061F190E0880F991FFC01EE59FE4FC5912B
:101DC000D491FC01E459FE4FA591B491611109C071
:101DD0009FB7F8948881209582238883EC912E23E5
:101DE0000BC0623061F49FB7F8948881322F309530
:101DF00083238883EC912E2B2C939FBF06C08FB733
:101E0000F894E8812E2B28838FBFDF91CF9108951E
:101E1000FC01962F818D8F3F31F0683058F4CF014F
:101E20004A960C94C31B85898F3F21F461E0892F6A
:101E30000C94CC0E0895CF93DF93EC01862F68832A
:101E400049839FEF9A831B821D821C821F821E8200
:101E500091E098871A8619869B871D861C869E8727
:101E6000188A1F86198A1A8A1B8A1C8A1D8A62E0B0
:101E70000E94CC0E62E089810E94CC0E62E08A81D1
:101E80000E94CC0E88810E94950C2B8130E0821735
:101E9000930721F483E090E09F838E8389810E94E1
:101EA000950C2B8130E08217930731F48E819F814E
:101EB00021E082279F838E83DF91CF9108958F92B7
:101EC0009F92AF92BF92CF92DF92EF92FF926B01FF
:101ED0007C010E9473014B015C01C114D104E10437
:101EE000F104F1F00E947301DC01CB01881999091A
:101EF000AA09BB09883E9340A105B10570F321E012
:101F0000C21AD108E108F10888EE880E83E0981E15
:101F1000A11CB11CC114D104E104F10419F7DDCFF7
:101F2000FF90EF90DF90CF90BF90AF909F908F90F9
:101F30000895CF92DF92EF92FF920F931F93CF936A
:101F4000DF936C017A018B01C0E0D0E0CE15DF0594
:101F500081F0D8016D918D01D601ED91FC91019038
:101F6000F081E02DC6010995892B11F02196EECF65
:101F70007E01C701DF91CF911F910F91FF90EF90EC
:101F8000DF90CF900895FC01538D448D252F30E0D4
:101F9000842F90E0821B930B541710F0CF96089576
:101FA00001970895FC01918D828D981761F0828DC3
:101FB000DF01A80FB11D5D968C91928D9F5F9F737D
:101FC000928F90E008958FEF9FEF0895FC01918D1F
:101FD000828D981731F0828DE80FF11D858D90E08C
:101FE00008958FEF9FEF0895FC01918D228D892F29
:101FF00090E0805C9F4F821B91098F739927089511
:1020000087E894E00E94F40F21E0892B09F420E096
:10201000822F0895FC01848DDF01A80FB11DA35A02
:10202000BF4F2C91848D90E001968F739927848FF8
:10203000A689B7892C93A089B1898C91837080641B
:102040008C93938D848D981306C00288F389E02DBC
:1020500080818F7D80830895EF92FF920F931F936D
:10206000CF93DF93EC0181E0888F9B8D8C8D98134B
:1020700005C0E889F989808185FD26C0F62E0B8D83
:1020800010E00F5F1F4F0F731127E02E8C8DE812A9
:102090000CC00FB607FCFACFE889F989808185FF6B
:1020A000F5CFCE010E940A10F1CF8B8DFE01E80F13
:1020B000F11DE35AFF4FF0829FB7F8940B8FEA8926
:1020C000FB89808180620AC09FB7F894EE89FF89FE
:1020D0006083E889F98980818370806480839FBFF1
:1020E00081E090E0DF91CF911F910F91FF90EF90F1
:1020F0000895CF93DF93EC01888D8823C9F0EA8996
:10210000FB89808185FD05C0A889B9898C9186FDF0
:102110000FC00FB607FCF5CF808185FFF2CFA889ED
:10212000B9898C9185FFEDCFCE010E940A10E7CFCF
:10213000DF91CF91089580E090E0892B29F00E94F3
:10214000001081110C94000008950C941228DC01F9
:10215000ED91FC910190F081E02D099461157105DC
:1021600079F0FB0101900020E9F73197AF01461BA0
:10217000570BDC01ED91FC910280F381E02D099475
:1021800080E090E008958F929F92AF92BF92EF927D
:10219000FF920F931F93CF93DF93CDB7DEB7A19735
:1021A0000FB6F894DEBF0FBECDBF7C01FA01CB01A4
:1021B00019A2223008F42AE08E010F5D1F4F822EF3
:1021C000912CA12CB12CBF01A50194010E943327B1
:1021D000F901CA01015011096A3014F4605D01C0AF
:1021E000695CD8016C93232B242B252B61F7B80154
:1021F000C7010E94AE10A1960FB6F894DEBF0FBEC5
:10220000CDBFDF91CF911F910F91FF90EF90BF90C5
:10221000AF909F908F9008950C94AE101F920F92E4
:102220000FB60F9211242F933F934F935F936F93A9
:102230007F938F939F93AF93BF93EF93FF9387E821
:1022400094E00E940A10FF91EF91BF91AF919F918E
:102250008F917F916F915F914F913F912F910F904F
:102260000FBE0F901F9018951F920F920FB60F92EE
:1022700011242F938F939F93EF93FF93E0919704F3
:10228000F09198048081E0919D04F0919E0482FD7C
:1022900012C090818091A0048F5F8F732091A10460
:1022A000821751F0E091A004F0E0E957FB4F958FC1
:1022B0008093A00401C08081FF91EF919F918F9145
:1022C0002F910F900FBE0F901F9018951F920F9295
:1022D0000FB60F9211240F900FBE0F901F901895FC
:1022E00008951F920F920FB60F9211242F933F93D0
:1022F0004F935F936F937F938F939F93AF93BF930E
:10230000EF93FF93E091B403F091B5030995FF912A
:10231000EF91BF91AF919F918F917F916F915F915D
:102320004F913F912F910F900FBE0F901F901895D6
:10233000CF92DF92EF92FF920F931F93CF93DF9391
:10234000EC018FB7F894C090B603D090B703E0903B
:10235000B803F090B9038FBF8B85882359F0898526
:102360009A8502979A87898789859A8597FF02C0FF
:102370001A86198688810E94950C2B8130E082177D
:10238000930711F413E001C010E089810E94950CBD
:102390002B8130E08217930711F481E018278E819A
:1023A0009F81811B80FF12C0212F110F330B3F83B0
:1023B0002E832C813D818270082E000C990B019791
:1023C000820F931F9D838C8381E001C080E09B85F9
:1023D000992361F0882351F089859A85883E9B4036
:1023E00028F489859A8549969A8789878A818823DE
:1023F00009F45BC04A895B896C897D8997018601F4
:10240000041B150B260B370B0A301105210531056E
:1024100008F44BC0CA8ADB8AEC8AFD8A0E94950CBC
:102420002B8130E08217930761F48F85988901969C
:10243000988B8F878937910520F083E090E09D8706
:102440008C878A810E94950C3B8121E0232730E014
:1024500082179307F9F48F859889892BC9F08C85A9
:102460009D85039719F484E090E007C08989823044
:1024700040F08C3368F486E090E09D878C87198A61
:1024800007C08E85811102C081E001C08CE3898B79
:10249000188A1F868989882341F08250898B81118F
:1024A00004C085E090E09D878C87DF91CF911F91DC
:1024B0000F91FF90EF90DF90CF900895CF93C42FAE
:1024C000FC018081806291E0909363048093850495
:1024D000109264041092860484E295E00E94A9039D
:1024E0006C2F84E295E00E94A90381E0CF910C94C7
:1024F000671BCF93DF93EC018881806291E090931A
:10250000630480938504109264041092860484E22C
:1025100095E00E94A90381E00E94671B80916204FC
:102520008111FCCF888191E09093620490936104C3
:102530002FEF2093600410925F0410925E0490933A
:102540003D0490913D048062880F892B80933D0467
:1025500080913C04813061F410923C0480913D04F0
:102560008093BB008091BC0083FDF8CF85EC01C057
:1025700085EE8093BC00809162048130E1F380910C
:102580005F04811103C090915F0401C091E0AEE34C
:10259000B4E0EAE1F4E080E0891721F02D91219385
:1025A0008F5FFACF1092AF038093AE0384E295E081
:1025B0000E946003DF91CF910895CF92DF92EF9256
:1025C000FF920F931F93CF93DF93EC01162F042FED
:1025D000898D8F3F01F1683008F064C06A9669E028
:1025E000CE010E94791241E050E001C0440F1A95DB
:1025F000EAF7013011F4482B02C04095482369E006
:10260000CE01DF91CF911F910F91FF90EF90DF905E
:10261000CF900C945E128D898F3FC1F1488D0130AF
:1026200049F421E030E001C0220F6A95EAF7242B3B
:10263000288F09C081E090E001C0880F6A95EAF711
:1026400080958423888F60E08F890E94BE0CE88C7F
:10265000DD88CE8807E010E0F12CB701002E02C023
:10266000759567950A94E2F761708C2D0E94BE0CF7
:1026700061E08D2D0E94BE0C60E08D2D0E94BE0C8D
:102680000150110950F761E08F8902C0642F812F3A
:10269000DF91CF911F910F91FF90EF90DF90CF903E
:1026A0000C94BE0CDF91CF911F910F91FF90EF9092
:1026B000DF90CF900895CF93DF93EC0140E06E81DF
:1026C0000E94DD1241E06E81CE010E94DD1240E0E9
:1026D0006E81CE010E94DD128BE891E00197F1F747
:1026E000DF91CF910895AF92BF92CF92DF92EF9298
:1026F000FF920F931F93CF93DF93EC01898D8E018F
:10270000095F1F4FC62ED12C8F3F09F464C05E01B4
:102710008AE1A80EB11C69E0C5010E947912F80196
:1027200020E030E061E070E09191EE24E394F12C40
:10273000AB01092E01C0440F0A94EAF740958423A7
:10274000A601022E02C0559547950A94E2F7417002
:10275000552701C0440F9A95EAF7842B2F5F3F4F0E
:102760002430310509F7A7010E8002C0440F551F20
:102770000A94E2F7142F10951823412F69E0C50140
:102780000E945E12C7010E8002C0880F991F0A9432
:10279000E2F7182B412F69E0C5010E945E120E80FE
:1027A00002C0EE0CFF1C0A94E2F7E0944E2D412388
:1027B00069E0C5010E945E128BE891E00197F1F794
:1027C000DF91CF911F910F91FF90EF90DF90CF900D
:1027D000BF90AF900895E12CF12C5801F801619160
:1027E0008F01CE010E94080FA6010E2C02C0559544
:1027F00047950A94E2F74170F5016081CE010E948D
:10280000DD12FFEFEF1AFF0A84E0E816F10429F762
:10281000CE01DF91CF911F910F91FF90EF90DF904C
:10282000CF90BF90AF900C945B13AF92BF92CF92BA
:10283000DF92EF92FF920F931F93CF93DF93EC0100
:10284000F62E6C810E94DD126D816F3F21F040E019
:10285000CE010E94DD128F850F2D10E084FF2EC067
:102860005E0187E0A80EB11CE12CF12C6501F50199
:1028700061915F01CE010E94080FA8010E2C02C0D9
:10288000559547950A94E2F74170F6016081CE01B3
:102890000E94DD12FFEFEF1AFF0A88E0E816F1044C
:1028A00029F7CE01DF91CF911F910F91FF90EF900B
:1028B000DF90CF90BF90AF900C945B13B80184E091
:1028C000759567958A95E1F7CE010E9473136F2D78
:1028D000CE01DF91CF911F910F91FF90EF90DF908C
:1028E000CF90BF90AF900C94731310924906089547
:1028F000CF92DF92EF92FF921F93CF93DF93EC0181
:10290000162F2AE037ED43E25CE369857A858B85F3
:102910009C850E94142669877A878B879C87CD8443
:10292000DE84EF84F888A70196010E94892487FF3E
:102930000FC0112349F089899A89AB89BC8989879D
:102940009A87AB87BC8704C0C986DA86EB86FC868B
:1029500081E0DF91CF911F91FF90EF90DF90CF90BA
:102960000895CF92DF92EF92FF921F93CF93DF9360
:10297000EC01162F2D893E894F89588D69857A85FE
:102980008B859C850E94142669877A878B879C8714
:10299000CD84DE84EF84F888A70196010E94892403
:1029A00087FF0FC0112349F089899A89AB89BC89B7
:1029B00089879A87AB87BC8704C0C986DA86EB868D
:1029C000FC8681E0DF91CF911F91FF90EF90DF9027
:1029D000CF900895CF92DF92EF92FF921F93CF9303
:1029E000DF93EC01162F2AE037ED43E25CE36985C3
:1029F0007A858B859C850E94152669877A878B87C7
:102A00009C87C988DA88EB88FC88A70196010E9418
:102A1000292718167CF4112349F08D859E85AF85F2
:102A2000B88989879A87AB87BC8704C0C986DA864C
:102A3000EB86FC8681E0DF91CF911F91FF90EF90B4
:102A4000DF90CF900895CF92DF92EF92FF921F9385
:102A5000CF93DF93EC01162F2D893E894F89588D36
:102A600069857A858B859C850E94152669877A877A
:102A70008B879C87C988DA88EB88FC88A701960138
:102A80000E94292718167CF4112349F08D859E8514
:102A9000AF85B88989879A87AB87BC8704C0C98608
:102AA000DA86EB86FC8681E0DF91CF911F91FF9063
:102AB000EF90DF90CF900895DB01ED91FC9111979D
:102AC0000680F781E02DBC01CD010994DC0114964C
:102AD0009C91149781E0892714968C931497811107
:102AE00008C01696ED91FC911797309711F0CD0123
:102AF000099580E090E0089580E00895DB01ED9174
:102B0000FC9111970280F381E02DBC01CD01099465
:102B1000DB01ED91FC9111970084F185E02DBC0162
:102B2000CD0109940F931F93CF93DF93EC0100E045
:102B300010E08E8590E0081719079CF4C801880FF3
:102B4000991FEA85FB85E80FF91F80819181DC01DF
:102B5000ED91FC910284F385E02D09950F5F1F4FE5
:102B6000E8CFE885F9851582188A1F868E85882327
:102B700031F0EA85FB850190F081E02D02C0E0E0B4
:102B8000F0E0F987E88781E08583DF91CF911F919D
:102B90000F910895FC018785808B9685992331F1EB
:102BA000882311F0815004C0662301F18FEF890F53
:102BB000878722859385A22FB92FA80FB11DA80F53
:102BC000B11D0D90BC91A02DB187A08781E0159615
:102BD0008C938089E22FF92FE80FF11DE80FF11D8A
:102BE0000190F081E02D158281E0089580E0089544
:102BF000CF93DF93FC018785808B26852223B1F15B
:102C0000482F50E030E02150310942175307B1F00E
:102C10008F5F878722859385A22FB92FA80FB11DBB
:102C2000A80FB11D0D90BC91A02DB187A08781E0A8
:102C300015968C938089E22FF92F0EC06623B1F090
:102C40001786A285B385CD91DC911197D187C08776
:102C500081E08D838089FD01E80FF11DE80FF11DF2
:102C60000190F081E02D158281E001C080E0DF91CC
:102C7000CF910895DC011696ED91FC91179730974E
:102C800009F0099580E090E008950E943A1680E0EE
:102C900090E00895CF93DF93EC010E943A16CE01A5
:102CA000DF91CF9108950C94A30D0F931F93CF93B1
:102CB000DF930E94F20C60E0809145060E94BE0CFA
:102CC000C0E0D0E00BEC17E061E0809143060E9489
:102CD000BE0CC8010197F1F760E0809143060E94A5
:102CE000BE0CC8010197F1F72196C03283E0D807E6
:102CF00059F7DF91CF911F910F910C94ED0C0C942B
:102D0000FC0C880F991FFC01EB58FD4F65917491E5
:102D100085E094E00C941B22DC01FB01F8941496EE
:102D20002D913C91159718968C911897823021F42B
:102D3000C9018170992705C0843041F4C9018370AD
:102D4000992715969C938E93149704C015961C9200
:102D50001E921497789418968C911897843029F4C1
:102D6000359527953595279504C0823011F4359512
:102D700027951B968C911B97882339F019968D9176
:102D80009C911A97892F992702C080E090E037FF25
:102D900003C08095909506C0232B11F0019602C0C8
:102DA00080E090E022813381820F931F938382839E
:102DB0002081318182179307A9F0281739072CF455
:102DC000248135812F5F3F4F07C08217930734F46A
:102DD0002481358121503109358324839183808377
:102DE00081E0868308951092070180910701811187
:102DF00007C06AE070E080E090E00E945F0FF5CFCE
:102E0000109207010895CF93DF93EB010E94950C78
:102E10009C0191E02115310509F490E09883232B62
:102E200011F481E08B838981981711F081E08A8306
:102E30009983DF91CF9108950F931F93CF93DF93E1
:102E4000EC018B016E8570E06F5F7F4F660F771F1F
:102E50008A859B850E949B289B878A87009791F093
:102E60002E85FC01E20FF11DE20FF11D118300839D
:102E7000211105C01987088781E0F80185838E85B7
:102E80008F5F8E87DF91CF911F910F9108952F92C1
:102E90003F924F925F926F927F928F929F92AF92EA
:102EA000BF92CF92DF92EF92FF920F931F93CF9337
:102EB000DF93CDB7DEB7E2970FB6F894DEBF0FBE53
:102EC000CDBF19821A821B821C8280911A069091B2
:102ED0001B06A0911C06B0911D068D839E83AF83B7
:102EE000B8878091FF0590910006A0910106B091EE
:102EF000020689879A87AB87BC878091E405909109
:102F0000E505A091E605B091E7058D879E87AF871F
:102F1000B88B0E94D20A85E090E00E94811665E09D
:102F200074E0CE0145960E942B02BE016B5E7F4F7E
:102F300081E090E00E944D0BCE0145960E943A0C34
:102F400081E090E00E94811665E074E0CE01459634
:102F50000E942B02BE016B5E7F4F83E090E00E94D7
:102F60004D0BCE0145960E943A0C0E94F3160E942A
:102F7000D20A86E090E00E94811665E074E0CE01FE
:102F800045960E942B02BE016B5E7F4F81E090E070
:102F90000E944D0BCE0145960E943A0CF89480E0B9
:102FA00090E0A0E8BFE380935E0690935F06A09355
:102FB0006006B09361060E94A30D7894C0905106FC
:102FC000D0905206E0905306F0905406CD8ADE8AE7
:102FD000EF8AF88EC0925E06D0925F06E09260069D
:102FE000F0926106CE0101969CA78BA7FE0179960F
:102FF000FEA7EDA788248394912C0E94D20A86E034
:1030000090E00E94811665E074E0CE0185960E94F2
:103010002B02B401CE0185960E940E0BCE0185963F
:103020000E943A0C81E090E00E94811665E074E015
:10303000CE0185960E942B02BE016B5D7F4F83E01F
:1030400090E00E944D0BCE0185960E943A0C0E94A2
:10305000F316EBA5FCA5448055806680778066E476
:1030600072E0CE0185960E942B02A3019201BE015F
:103070006B5D7F4F80E090E00E942B0BCE01859628
:103080000E943A0C6DE472E0CE0185960E942B02FC
:10309000BE016B5D7F4F81E090E00E944D0BCE0141
:1030A00085960E943A0C82E090E00E94811665E0CD
:1030B00074E0CE0185960E942B02BE016B5D7F4FAE
:1030C00083E090E00E944D0BCE0185960E943A0C61
:1030D000F89481E00E94D00D1B012C017894970197
:1030E0008601AB01BC0182E090E00E94780B8091E8
:1030F0000701811122C1F894C0925E06D0925F064A
:10310000E0926006F092610685E00E94D00D3B01DE
:103110005C0178942AE037ED43E25CE3B101C2013F
:103120000E9415269B01AC01B301C5010E9429270D
:1031300087FF1AC02AE037ED43E25CE3B101C20128
:103140000E9414269B01AC01B301C5010E94892491
:10315000181654F42FA538A949A95AA9C701B601D0
:103160000E948924882341F097018601A301B501BB
:1031700082E090E00E94780BEBA5FCA524803580CE
:103180004680578027E137EB41ED58E3C201B1019A
:103190000E9415269B01AC01B301C5010E9429279D
:1031A00018160CF048C02AE939E949E95EE3C20182
:1031B000B1010E9415269B01AC01B301C5010E941B
:1031C000292718162CF420E030E046E953E42EC0FD
:1031D0002AE037ED43E25CE3C201B1010E9415260B
:1031E0009B01AC01B301C5010E94292718162CF4DC
:1031F00020E030E048E453E419C02DEC3CEC4CE412
:103200005DE3C201B1010E9415269B01AC01B3012F
:10321000C5010E94292718162CF420E030E048EC64
:1032200052E404C020E030E040E85FE3C701B601AB
:103230000E94152657C027E137EB41ED58E3C20144
:10324000B1010E9414269B01AC01B301C5010E948B
:10325000892487FF4AC02AE939E949E95EE3C201C6
:10326000B1010E9414269B01AC01B301C5010E946B
:10327000892487FF05C020E030E046E953E42EC0F2
:103280002AE037ED43E25CE3C201B1010E9414265B
:103290009B01AC01B301C5010E94892487FF05C0D1
:1032A00020E030E048E453E419C02DEC3CEC4CE461
:1032B0005DE3C201B1010E9414269B01AC01B30180
:1032C000C5010E94892487FF05C020E030E048EC5A
:1032D00052E404C020E030E040E85FE3C701B601FB
:1032E0000E9414261B012C0102C01601270120E0B8
:1032F00030E0A901B101C2010E94892487FF08C002
:10330000209051063090520640905306509054063B
:1033100060E071E084E090E00E94031764E071E0F7
:1033200086E090E00E940317CFA6D8AAE9AAFAAADD
:103330006101720113012501DACE0E94D20A62E610
:1033400072E0CE0185960E942B02A7019601BE0174
:103350006B5D7F4F81E090E00E942B0BCE01859644
:103360000E943A0C66E472E0CE0185960E942B0220
:103370009101A201BE016B5D7F4F82E090E00E944F
:103380002B0BCE0185960E943A0C81E090E00E94C2
:10339000811665E074E0CE0185960E942B02BE0185
:1033A0006B5D7F4F83E090E00E944D0BCE018596D0
:1033B0000E943A0CEDA5FEA5C192D192E192F19244
:1033C000FEA7EDA70E94F316FFEF8F1A9F0A8BA5A9
:1033D0009CA504969CA78BA794E08916910409F0FC
:1033E0000CCE5E01E5E1AE0EB11C4E01F5E28F0E92
:1033F000911C412C512C3201F50161917191819107
:1034000091915F0120E030E040E85EE30E94EF240C
:103410009B01AC01C301B2010E9415262B013C01A6
:10342000A814B90449F70E94D20A60E772E0CE01FD
:1034300085960E942B02BE016B5D7F4F80E090E07D
:103440000E944D0BCE0185960E943A0C62E672E016
:10345000CE0185960E942B02A7019601BE016B5DED
:103460007F4F81E090E00E942B0BCE0185960E9459
:103470003A0C81E090E00E94811665E074E0CE0194
:1034800085960E942B02BE016B5D7F4F83E090E02A
:103490000E944D0BCE0185960E943A0C0E94F316B5
:1034A000F89440925E0650925F06609260067092B9
:1034B000610678940E940A0C0E94270CE2960FB6CF
:1034C000F894DEBF0FBECDBFDF91CF911F910F915A
:1034D000FF90EF90DF90CF90BF90AF909F908F9034
:1034E0007F906F905F904F903F902F9008950F9333
:1034F0001F93CF93DF9300D000D000D0CDB7DEB7BD
:103500008B0181E090E00E948116F8016281738155
:10351000CE0101960E942B02CE0101960E94F40B6F
:10352000CE0101960E943A0C26960FB6F894DEBFA3
:103530000FBECDBFDF91CF911F910F910895CF9214
:10354000DF92EF92FF920F931F93CF93DF9300D000
:1035500000D000D0CDB7DEB78B01FB01C184D2848F
:10356000E384F48462817381CE0101960E942B0270
:10357000B701A601CE0101960E94D30BCE010196A0
:103580000E943A0CF8018481811103C080E090E030
:1035900002C081E090E00E94811665E074E0CE01F7
:1035A00001960E942B02CE0101960E94DA0ACE01FA
:1035B00001960E943A0C26960FB6F894DEBF0FBE15
:1035C000CDBFDF91CF911F910F91FF90EF90DF90D2
:1035D000CF900895CF93DF9300D000D000D0CDB727
:1035E000DEB7FB0162817381CE0101960E942B023E
:1035F000CE0101960E94DA0ACE0101960E943A0C91
:1036000026960FB6F894DEBF0FBECDBFDF91CF91E7
:1036100008950F931F93CF93DF9300D000D000D075
:10362000CDB7DEB78B0180E090E00E948116F801F3
:1036300062817381CE0101960E942B02CE01019618
:103640000E94BD0BCE0101960E943A0C26960FB641
:10365000F894DEBF0FBECDBFDF91CF911F910F91C8
:103660000895EF92FF920F931F93CF93DF9300D0B3
:1036700000D000D0CDB7DEB77C018B01DB01129604
:103680006D917C911397CE0101960E942B02CE0181
:1036900001960E94AB0BCE0101960E943A0CF801F4
:1036A00080859185DC01ED91FC910190F081E02D08
:1036B000B701099526960FB6F894DEBF0FBECDBFB1
:1036C000DF91CF911F910F91FF90EF900895282FD8
:1036D00030918604313208F04AC080916204811131
:1036E000FCCF9091850442E04093620420936104F2
:1036F0002FEF2093600410925F0430935E04E5E6A0
:10370000F4E0AEE3B4E020E0321721F041914D93B4
:103710002F5FFACF10923D0420913D04990F922B18
:1037200090933D0490913C04913061F410923C04DC
:1037300090913D049093BB009091BC0093FDF8CF15
:1037400095EC01C095EE9093BC009091620492308C
:10375000E1F3909160049F3F79F0809160048032A2
:1037600041F080916004803331F084E005C081E055
:1037700003C082E001C083E01092640410928604CA
:103780001092630408951F93CF93DF93EC01162FDB
:1037900060E00E94791241E050E001C0440F1A95A8
:1037A000EAF74095482360E0CE01DF91CF911F9169
:1037B0000C945E12789484B5826084BD84B5816077
:1037C00084BD85B5826085BD85B5816085BD8091EC
:1037D0006E00816080936E00109281008091810064
:1037E000826080938100809181008160809381005C
:1037F000809180008160809380008091B10084601E
:103800008093B1008091B00081608093B00080917E
:103810007A00846080937A0080917A00826080933D
:103820007A0080917A00816080937A0080917A009A
:10383000806880937A001092C100E0919704F09123
:10384000980482E08083E0919304F09194041082C4
:10385000E0919504F09196048FEC808310929F0480
:10386000E0919B04F0919C0486E08083E0919904B0
:10387000F0919A04808180618083E0919904F091B5
:103880009A04808188608083E0919904F0919A0481
:10389000808180688083E0919904F0919A0480810E
:1038A0008F7D808380E1809381001092800080E48E
:1038B0009FE1909387008093860081E1809381004F
:1038C00088E094E09093B5038093B403C1E0C09383
:1038D0006F0086E190E00E947A278C0143E06EE061
:1038E0000E941B0F1093B3030093B20386E190E094
:1038F0000E947A278C0142E06FE00E941B0F109318
:10390000B1030093B00360E086E00E94CC0E60E05B
:1039100084E00E94CC0E60E085E00E94CC0E809195
:103920008A068F3F09F4A7C0877080938B06109298
:10393000AF031092AE0310926404109286041092AA
:103940006204C093610410923C0461E082E10E9431
:10395000BE0C61E083E10E94BE0C8091B9008E7FB5
:103960008093B9008091B9008D7F8093B90088E47D
:103970008093B80085E48093BC008EE493E090933C
:10398000AD038093AC038FE493E09093AB038093FB
:10399000AA0380918B068062C093630480938504A0
:1039A000109264041092860460E084E295E00E9424
:1039B000A9036FEF84E295E00E94A90360E084E22E
:1039C00095E00E94A90360E084E295E00E94A903CB
:1039D00060E084E295E00E94A90360E084E295E063
:1039E0000E94A90360E084E295E00E94A90360E0E0
:1039F00084E295E00E94A90360E084E295E00E94E1
:103A0000A90360E084E295E00E94A90360E084E2FB
:103A100095E00E94A90381E00E94671B67E08BE8A4
:103A200096E00E94C31B69E08BE896E00E94791241
:103A3000482F406869E08BE896E00E945E12C8E774
:103A4000D6E0699181E796E00E94080F26E0CC3726
:103A5000D207B9F760917506683020F48BE896E0DC
:103A60000E94C31B60917706683060F58BE896E092
:103A70000E94C31B27C08091860661E08F3F91F0B2
:103A8000809187060E94CC0E61E0809186060E949C
:103A9000CC0E61E0809188060E94CC0E80E8809375
:103AA000890610C0809175060E94CC0E8091760622
:103AB0008F3F19F061E00E94CC0E61E080917706A3
:103AC0000E94CC0E8091800688608093800683E0FF
:103AD00080938406109285068BE39DE00197F1F7B1
:103AE00040E06091750681E796E00E94DD1240E0BB
:103AF0006091770681E796E00E94DD12609176067C
:103B00006F3F29F040E081E796E00E94DD1280914E
:103B1000800684FD20C063E081E796E00E94731375
:103B2000CBE4D6E4CE010197F1F763E081E796E0BC
:103B30000E9473132197F1F763E081E796E00E94FA
:103B4000731383E592E00197F1F762E081E796E075
:103B50000E94731315C080620E94960A8BE496E45B
:103B60000197F1F78091800680620E94960A83E5B2
:103B700092E00197F1F78091800680620E94960A98
:103B80008091800680620E94960A84E0809381067C
:103B90008CE00E94960A0E94D20A82E080938206FC
:103BA00086E00E94960AC0913D06D0913E066CE2E6
:103BB00076E0CE010E941C17D0933906C0933806D8
:103BC00061E176E08CE296E00E941C1766EF75E0FA
:103BD0008CE296E00E941C176BED75E08CE296E09B
:103BE0000E941C1763ED75E08CE296E00E941C17A2
:103BF000C0913D06D0913E0662EC75E0CE010E9478
:103C00001C17D093CF05C093CE0567EA75E082EC10
:103C100095E00E941C176CE875E082EC95E00E942C
:103C20001C1761E775E082EC95E00E941C1769E6BD
:103C300075E082EC95E00E941C17C0913D06D09182
:103C40003E0668E575E0CE010E941C17D09365051D
:103C5000C093640560E575E088E595E00E941C1757
:103C600068E475E088E595E00E941C1760E475E063
:103C700088E595E00E941C1768E375E088E595E00B
:103C80000E941C1760E375E088E595E00E941C1710
:103C90000E94270C68E971E087E894E00E94AE106A
:103CA0006BE971E087E894E00E94AE100E945A042C
:103CB000C7E7D3E71DE20BE284E6F82E91E6E92E92
:103CC00080914E0690914F06893E934094F081E09A
:103CD0000E94D00D60934A0670934B0680934C0669
:103CE00090934D0610924F0610924E0681E08093FD
:103CF000500680916D0690916E068D3F9F4F34F473
:103D0000C093BA0310926E0610926D0680916D06F4
:103D100090916E06049734F0D093BA0310926E0619
:103D200010926D0680916606909167068D3F9F4FB9
:103D300034F41093BA0310926706109266068091CD
:103D4000660690916706049734F00093BA031092C8
:103D500067061092660680910701882321F0F09291
:103D6000BA031092070180910301882321F0E092A9
:103D7000BA03109203018091BA03882309F49BC00F
:103D8000813691F13CF48B3209F45EC08D3209F436
:103D900075C08FC0833749F0873721F0843609F02A
:103DA00088C030C00E940A0C1CC0A0913F06B09190
:103DB000400618968D919C911997FC01248122232D
:103DC00039F00190F081E02D0280F381E02D68C090
:103DD000ED91FC9111970280F381E02D60E0CD011F
:103DE00009950E94270C65C0E0913F06F0914006BE
:103DF00080913D0690913E06E817F90791F384857E
:103E000095851DC0E0913F06F09140068685882388
:103E100041F3878522859385E22FF92FE80FF11D65
:103E2000E80FF11D808191810097D9F2DC01ED91BD
:103E3000FC910484F585E02D0995009791F290930B
:103E4000400680933F06CDCFA0913F06B09140063B
:103E500018968D919C911997FC012481222339F0A9
:103E60000190F081E02D0480F581E02D19C0ED91E5
:103E7000FC9111970480F581E02DB0CFA0913F0611
:103E8000B091400618968D919C911997FC01248160
:103E9000222341F00190F081E02D0084F185E02D96
:103EA00060E09ECFED91FC9111970084F185E02DAB
:103EB00095CF1092BA030E949B1002CF3F924F926F
:103EC0005F926F927F928F929F92AF92BF92CF92AA
:103ED000DF92EF92FF920F931F93CF93DF93E7E868
:103EE000F4E01382128288EE93E0A0E0B0E08483D5
:103EF0009583A683B7832EE231E03183208325ECBE
:103F000030E03587248724EC30E03787268720ECA3
:103F100030E0318B208B21EC30E0338B228B22EC94
:103F200030E0358B248B26EC30E0378B268B118EDE
:103F3000128E138E148EE4E2F5E0138212828483D3
:103F40009583A683B78380E491E091838083E9E63B
:103F5000F6E08FEF9FEF9183808333243394368292
:103F6000E2E6F6E0918380833682C5E5D6E088E814
:103F700091E0998388831D821E821F821886C12C3E
:103F8000D12C80E8E82E8FE3F82EC986DA86EB86FE
:103F9000FC8688E08A8387E08B8361E088E00E946A
:103FA000CC0E60E08B810E94CC0E3C8260E08A8166
:103FB0000E94BE0C0E944A0DEAE4F6E0368280E0E0
:103FC0009EEDA8E2B7E487839087A187B287C3E418
:103FD000D6E01E8283E190E09983888382E190E0BD
:103FE0009B838A8381E190E09D838C8361E083E100
:103FF0000E94CC0E61E08A810E94CC0E61E08C812F
:104000000E94CC0E61E088810E94BE0C61E08A8132
:104010000E94BE0C61E08C810E94BE0C81E190E0A8
:104020000E947A27FC018DE991E0938382831482B8
:1040300015821782168266E771E0718360831186AC
:104040001086138612861586148616861786108AA1
:10405000ADE3B6E01196FC93EE931396FC93EE93CA
:1040600012978CE091E015969C938E931497ECE256
:10407000F6E084E892E093838283148215821782AB
:1040800016827183608311861086138612861586C8
:10409000148616861786108AE1E1F6E089E992E037
:1040A00093838283148215821782168222E531E07F
:1040B0003183208381E3808789E29CE5AFE2BFE31F
:1040C00081879287A387B4879DEC892E9CEC992EDB
:1040D000A92C9DE3B92E85869686A786B08AC18ACB
:1040E000D28AE38AF48A858A968AA78AB08E4BEFB1
:1040F00054E0528F418FE6EFF5E08DEA92E0938332
:10410000828314821582178216823183208382E390
:10411000808788E491EEAAEFBFE381879287A38727
:10412000B48780E090E0A0ECBFE385879687A787FF
:10413000B08B80E090E0A0E2B0E4818B928BA38B07
:10414000B48B858A968AA78AB08E528F418FEBED09
:10415000F5E081EC92E093838283148215821782CA
:1041600016823183208383E3808789ED9EECABEA5E
:10417000B0E481879287A387B48780E090E0A0E9CC
:10418000B0E485879687A787B08B80E090E0A0EBAE
:10419000B0E4818B928BA38BB48B858A968AA78A95
:1041A000B08E528F418FE3EDF5E0A5EDB2E0B38321
:1041B000A2831482158287E497E19783868384E63D
:1041C00091E091838083E2ECF5E002EE12E013834C
:1041D000028314821582178216827183608311868E
:1041E0001086138612861586148616861786108A00
:1041F000E7EAF5E007EF12E01383028314821582E9
:1042000017821682318320831EE51087118612865D
:1042100013861486158616861786108A412C512C13
:10422000C0EA6C2EC0E47C2E418A528A638A748A6A
:10423000858A968AA78AB08E528F418FECE8F5E086
:104240000BE013E013830283148215821782168217
:104250003183208316E7108781869286A386B486F1
:10426000C586D686E786F08A418A528A638A748A2E
:10427000858A968AA78AB08E528F418FE1E7F5E052
:104280004FE153E0538342831482158217821682D2
:104290003183208323E72087C186D286E386F48694
:1042A000C586D686E786F08A00E010E020E231E499
:1042B000018B128B238B348BC58AD68AE78AF08ECA
:1042C0002AE335E0328F218FE9E6F5E0B383A2835C
:1042D000148215822AEA36E037832683918380830D
:1042E000E8E5F5E023E333E033832283148215828B
:1042F0001782168271836083118610861386128658
:104300001586148616861786108AE0E5F5E026E401
:1043100033E033832283148215822FE736E137831B
:10432000268391838083E8E4F5E02AE533E0338354
:1043300022831482158225E536E137832683918313
:104340008083E0E4F5E02EE633E0338322831482B9
:10435000158223E536E13783268391838083E8E362
:10436000F5E022E833E0338322831482158225E7C7
:1043700034E13783268391838083E0E3F5E026E907
:1043800033E033832283148215822AE534E03783B5
:10439000268391838083E1E7F6E01382128280E92D
:1043A00091E0918380838FEF818F1786348285839C
:1043B00082E0868386E0878385E0808784E081874A
:1043C00083E082878CE0868B8DE0858B8BE0878B0A
:1043D000108EDF91CF911F910F91FF90EF90DF90A2
:1043E000CF90BF90AF909F908F907F906F905F9095
:1043F0004F903F900895EF920F931F93CF93DF93C9
:10440000E80147FD02C034E001C034E1042E000C95
:10441000550B57FF03C0519541955109E32E022FCB
:10442000242FAE010E944722CE01DF91CF911F9130
:104430000F91EF900895FB01DC0105900D92002093
:10444000E1F70895BB274A3031F4992322F4BDE205
:10445000909581959F4F0C942E22BB27FB015527E9
:10446000AA27880F991FAA1FA41710F0A41B8395D1
:104470005051B9F7A05DAA3308F0A95DA193009748
:1044800079F7B111B1931192CB010C947924A9E081
:10449000B0E0EDE4F2E20C94D4256A01122FB02EC4
:1044A0002BE3201720F0FF24F394F00E02C02CE33E
:1044B000F22E0F2D27E0AE014F5F5F4F0E94A12328
:1044C000BC014981842F8970813031F0E1FC06C044
:1044D000E0FE06C090E205C09DE203C09BE201C081
:1044E00090E05E2D507143FF3CC0911102C083E00B
:1044F00001C084E0811718F4212F281B01C020E09F
:1045000051110BC0F601822F30E2882319F031934C
:104510008150FBCFC20ED11C20E0992329F0D60197
:104520009C93F60131966F01C6010396E2FE0AC024
:104530003EE4D6013C9341E411964C9311971296B8
:104540003C9306C03EE6F601308341E64183328368
:10455000FC01322F40E2332309F442C04193315031
:10456000FACF42FF44C0911102C083E001C084E051
:10457000811718F4212F281B01C020E051110BC016
:10458000F601822F30E2882319F031938150FBCF5E
:10459000C20ED11C20E0992329F0D6019C93F6018C
:1045A00031966F01C6010396E2FE0BC039E4D601D5
:1045B0003C933EE411963C93119736E412963C935B
:1045C00007C039E6F60130833EE6318336E63283B2
:1045D000FC01322F40E2332319F041933150FBCFDD
:1045E000FC01E20FF11D10828EEF9FEFA6C021E0CB
:1045F00030E0911102C020E030E0161617061CF4DE
:10460000FB01319602C0E1E0F0E02E0F3F1FBB201E
:1046100021F0EB2DF0E0319602C0E0E0F0E02E0F4B
:104620003F1FE12FF0E02E173F071CF4121B212F34
:1046300001C020E08E2D887159F4F601822F30E2FE
:10464000882319F031938150FBCFC20ED11C20E09A
:10465000992329F0D6019C93F60131966F015111EF
:104660000BC0F601822F90E3882319F091938150BB
:10467000FBCFC20ED11C20E00F2D060F9A81342FE4
:10468000307144FF03C0913309F40150101624F433
:10469000093018F008E001C001E0AB0177FF02C06B
:1046A00040E050E0FB01E41BF50BA1E0B0E0AC0FF3
:1046B000BD1FEA0FFB1F8EE2A82E4B01801A910846
:1046C0000B2D10E01195019511094F3FBFEF5B07CE
:1046D00021F4D601AC9211966D01641775072CF088
:1046E0008416950614F4818101C080E3415051097C
:1046F0003196D60111967D014017510724F0D6015D
:104700008C936701E2CF6417750739F4963320F470
:10471000953319F4311101C081E3F6018083F7016B
:10472000822F90E2882319F091938150FBCFF701FB
:10473000E20FF11D108280E090E02996ECE00C94ED
:10474000F025283008F027E03327DA01990F311DD2
:1047500087FD916000966105710539F432602E5F26
:104760003D9330E32A95E1F708959F3F30F080387C
:104770007105610509F03C5F3C5F3D93913008F0A5
:104780008068911DDF93CF931F930F93FF92EF9259
:10479000192F987F9695E92F96959695E90FFF2703
:1047A000EE53FF4F99273327EE24FF24A701E7019B
:1047B00005900894079428F4360FE71EF81E491F49
:1047C000511D660F771F881F991F0694A1F705904A
:1047D000079428F4E70EF81E491F561FC11D770FD6
:1047E000881F991F661F0694A1F70590079428F467
:1047F000F80E491F561FC71FD11D880F991F661F2E
:10480000771F0694A1F70590079420F4490F561FCF
:10481000C71FD81F990F661F771F881F0694A9F717
:1048200084911095177041F0D695C7955795479587
:10483000F794E7941A95C1F7E8E6F0E068941590CC
:10484000159135916591959105907FE27395E118E9
:10485000F10A430B560BC90BD009C0F7E10CF11E4E
:10486000431F561FC91FD01D7EF4703311F48A9563
:10487000E6CFE894015030F0080F0AF40027021741
:1048800008F4202F2395022F7A3328F079E37D93C3
:104890002A95E9F710C07D932A9589F60694979595
:1048A0006795379517951794E118F10A430B560B46
:1048B000C90BD00998F023957E9173957A3308F04F
:1048C00070E37C932013B8F77E9170617D9330F094
:1048D000839571E37D9370E32A95E1F71124EF90BE
:1048E000FF900F911F91CF91DF91992787FD9095B0
:1048F0000895DC01FC01672F71917723E1F732976E
:1049000004C07C916D9370836291AE17BF07C8F3AA
:1049100008950E94CB2408F481E00895E89409C02A
:1049200097FB3EF490958095709561957F4F8F4FE2
:104930009F4F9923A9F0F92F96E9BB279395F695F8
:10494000879577956795B795F111F8CFFAF4BB0F76
:1049500011F460FF1BC06F5F7F4F8F4F9F4F16C0DA
:10496000882311F096E911C0772321F09EE8872F64
:10497000762F05C0662371F096E8862F70E060E020
:104980002AF09A95660F771F881FDAF7880F969599
:10499000879597F90895990F0008550FAA0BE0E83D
:1049A000FEEF16161706E807F907C0F012161306F1
:1049B000E407F50798F0621B730B840B950B39F431
:1049C0000A2661F0232B242B252B21F408950A2697
:1049D00009F4A140A6958FEF811D811D08950E94C5
:1049E00002250C9473250E94652538F00E946C25E1
:1049F00020F0952311F00C945C250C946225112471
:104A00000C94A7250E94842570F3959FC1F3950F00
:104A100050E0551F629FF001729FBB27F00DB11D42
:104A2000639FAA27F00DB11DAA1F649F6627B00DD2
:104A3000A11D661F829F2227B00DA11D621F739FBB
:104A4000B00DA11D621F839FA00D611D221F749FC9
:104A50003327A00D611D231F849F600D211D822F10
:104A6000762F6A2F11249F5750409AF0F1F0882337
:104A70004AF0EE0FFF1FBB1F661F771F881F915064
:104A80005040A9F79E3F510580F00C945C250C9492
:104A9000A7255F3FE4F3983ED4F386957795679515
:104AA000B795F795E7959F5FC1F7FE2B880F911D8E
:104AB0009695879597F9089597F99F6780E870E034
:104AC00060E008959FEF80EC089500240A94161684
:104AD000170618060906089500240A9412161306EC
:104AE000140605060895092E0394000C11F488237A
:104AF00052F0BB0F40F4BF2B11F460FF04C06F5F96
:104B00007F4F8F4F9F4F089557FD9058440F551F6B
:104B100059F05F3F71F04795880F97FB991F61F03F
:104B20009F3F79F087950895121613061406551FB6
:104B3000F2CF4695F1DF08C0161617061806991F22
:104B4000F1CF86957105610508940895E894BB2717
:104B500066277727CB0197F90895F999FECF92BD83
:104B600081BDF89A992780B50895262FF999FECF2F
:104B70001FBA92BD81BD20BD0FB6F894FA9AF99A7A
:104B80000FBE019608950E940526A59F900DB49F23
:104B9000900DA49F800D911D112408952F923F9296
:104BA0004F925F926F927F928F929F92AF92BF923D
:104BB000CF92DF92EF92FF920F931F93CF93DF93E9
:104BC000CDB7DEB7CA1BDB0B0FB6F894DEBF0FBE46
:104BD000CDBF09942A88398848885F846E847D8493
:104BE0008C849B84AA84B984C884DF80EE80FD8095
:104BF0000C811B81AA81B981CE0FD11D0FB6F8940B
:104C0000DEBF0FBECDBFED010895A29FB001B39FDF
:104C1000C001A39F700D811D1124911DB29F700DC5
:104C2000811D1124911D08955058BB27AA270E9469
:104C30002C260C9473250E94652538F00E946C2563
:104C400020F039F49F3F19F426F40C9462250EF4F9
:104C5000E095E7FB0C945C25E92F0E94842558F32E
:104C6000BA17620773078407950720F079F4A6F551
:104C70000C94A6250EF4E0950B2EBA2FA02D0B0157
:104C8000B90190010C01CA01A0011124FF27591B91
:104C900099F0593F50F4503E68F11A16F040A22F97
:104CA000232F342F4427585FF3CF46953795279508
:104CB000A795F0405395C9F77EF41F16BA0B620B07
:104CC000730B840BBAF09150A1F0FF0FBB1F661F4E
:104CD000771F881FC2F70EC0BA0F621F731F841F91
:104CE00048F4879577956795B795F7959E3F08F0B7
:104CF000B0CF9395880F08F09927EE0F9795879579
:104D000008950E9495260C9473250E946C2558F0F6
:104D10000E94652540F029F45F3F29F00C945C2542
:104D200051110C94A7250C9462250E94842568F3E8
:104D30009923B1F3552391F3951B550BBB27AA2754
:104D400062177307840738F09F5F5F4F220F331F8E
:104D5000441FAA1FA9F335D00E2E3AF0E0E832D056
:104D600091505040E695001CCAF72BD0FE2F29D059
:104D7000660F771F881FBB1F261737074807AB072B
:104D8000B0E809F0BB0B802DBF01FF2793585F4FA0
:104D90003AF09E3F510578F00C945C250C94A725C1
:104DA0005F3FE4F3983ED4F3869577956795B79582
:104DB000F7959F5FC9F7880F911D9695879597F98D
:104DC0000895E1E0660F771F881FBB1F6217730706
:104DD0008407BA0720F0621B730B840BBA0BEE1F1B
:104DE00088F7E09508950E94FA266894B1110C9412
:104DF000A72508950E948C2588F09F5798F0B92F19
:104E00009927B751B0F0E1F0660F771F881F991FFF
:104E10001AF0BA95C9F714C0B13091F00E94A625D6
:104E2000B1E008950C94A625672F782F8827B85FE6
:104E300039F0B93FCCF3869577956795B395D9F757
:104E40003EF490958095709561957F4F8F4F9F4F61
:104E500008950E94CB2408F48FEF08950E94CB247C
:104E6000880B990B0895A1E21A2EAA1BBB1BFD010A
:104E70000DC0AA1FBB1FEE1FFF1FA217B307E40739
:104E8000F50720F0A21BB30BE40BF50B661F771F91
:104E9000881F991F1A9469F7609570958095909571
:104EA0009B01AC01BD01CF010895052E97FB1EF4B7
:104EB00000940E946C2757FD07D00E94332707FCFF
:104EC00003D04EF40C946C27509540953095219565
:104ED0003F4F4F4F5F4F0895909580957095619526
:104EE0007F4F8F4F9F4F0895EE0FFF1F0590F49156
:104EF000E02D09940F931F93CF93DF938230910598
:104F000010F482E090E0E0918E06F0918F0620E0B0
:104F100030E0A0E0B0E0309719F14081518102818A
:104F2000138148175907C8F08417950769F410973B
:104F300031F012960C93129713961C9327C000938E
:104F40008E0610938F0622C02115310519F04217E5
:104F5000530718F49A01BD01EF01DF01F801DBCF1F
:104F600021153105F9F0281B390B2430310580F467
:104F70008A819B816115710521F0FB0193838283F6
:104F800004C090938F0680938E06FE01329644C033
:104F9000FE01E20FF31F819391932250310939836F
:104FA00028833AC020918C0630918D06232B41F442
:104FB000209110013091110130938D0620938C06C1
:104FC00020910E0130910F012115310541F42DB7CB
:104FD0003EB74091120150911301241B350BE09113
:104FE0008C06F0918D06E217F307A0F42E1B3F0B01
:104FF0002817390778F0AC014E5F5F4F241735074B
:1050000048F04E0F5F1F50938D0640938C0681939E
:10501000919302C0E0E0F0E0CF01DF91CF911F91CA
:105020000F910895CF93DF93009709F481C0FC019D
:10503000329713821282A0918E06B0918F0610973C
:1050400081F420813181820F931F20918C06309151
:105050008D062817390751F5F0938D06E0938C06DD
:1050600067C0ED0120E030E0CE17DF0740F44A8151
:105070005B819E0141155105F1F0EA01F5CFD38323
:10508000C28340815181840F951FC817D90759F4F5
:1050900088819981840F951F0296918380838A81EC
:1050A0009B81938382832115310529F4F0938F0628
:1050B000E0938E063DC0E901FB83EA834991599153
:1050C000C40FD51FEC17FD0761F480819181840F17
:1050D000951F0296E90199838883828193819B833E
:1050E0008A83E0E0F0E012968D919C9113970097EF
:1050F00019F0FD01DC01F7CF8D919C9111979D0175
:105100002E5F3F4F820F931F20918C0630918D06AA
:105110002817390769F4309729F410928F061092F6
:105120008E0602C013821282B0938D06A0938C0665
:10513000DF91CF910895A0E0B0E0E1EAF8E20C94AD
:10514000D225EC01009721F4CB010E947A27B4C04C
:10515000FC01E60FF71F9C0122503109E217F3070B
:1051600008F4A8C0D9010D911C91119706171707D3
:10517000B0F00530110508F49BC0C80104978617EC
:10518000970708F495C002501109061B170B0193ED
:1051900011936D937C93CF010E94122889C05B010B
:1051A000A01AB10A4C01800E911EA0918E06B091FA
:1051B0008F06612C712CE12CF12C109709F446C05C
:1051C0008D919C911197A815B905B1F56C0142E03C
:1051D000C40ED11CCA14DB0478F14C018A189B0858
:1051E000640142E0C40ED11C1296BC901297139633
:1051F000AC91B5E0CB16D10440F0B282A38391828A
:105200008082D9016D937C9309C00E5F1F4F800F80
:10521000911FF90191838083EB2DFA2FE114F104A2
:1052200031F0D7011396FC93EE93129741C0F0939F
:105230008F06E0938E063CC06816790608F43C01A0
:105240007D0112960D90BC91A02DB7CF80918C0658
:1052500090918D0688169906E1F466167706C8F4D3
:1052600080910E0190910F01009741F48DB79EB788
:105270004091120150911301841B950BE817F90717
:10528000C8F4F0938D06E0938C06F9017183608376
:105290000FC0CB010E947A277C01009759F0A8012A
:1052A000BE010E946629CE010E941228C70104C0D7
:1052B000CE0102C080E090E0CDB7DEB7EEE00C9406
:1052C000EE2581E090E0F8940C947629FB01DC0156
:1052D00002C001900D9241505040D8F70895FB0153
:1052E000DC0101900D920020E1F70895F894FFCFC2
:1052F000000001000000010000000100200100008A
:1053000090068000000040001400540000000000DF
:10531000311B091BEA1A9F1A771A000000002C1093
:10532000990FC30F7910F40FD20FE60F00000000A1
:10533000A9037C03D90350037403600351030000E5
:1053400000005C152315EA14B11478145003661597
:10535000000000007E157C157C157C157C15500323
:105360004516000000008815F815F815CA15CA156D
:1053700092154A16000000007011A51000000000F0
:10538000DC03990FD903D8034849000D0A006E6168
:105390006E00696E66006F766600696E3A20006F77
:1053A00075743A2000537461727465722074657369
:1053B0007400302D706B743A004E756C6C70756EA5
:1053C0006B742066756E6E6574004D616B7320762C
:1053D000656B743A00783A20007765696768745F96
:1053E000726561643A2000693A2000636F6E7374DD
:1053F0005F6B3A2000737072696E675F636F6E73E4
:10540000745F6176673A2000203A200046696E6139
:105410006C20737072696E6720636F6E73743A20CC
:10542000002020202020202020202020202020209C
:1054300020202020200056656B743A200041766CB5
:105440006573742020207C2020204B616C2E6661C7
:105450006B004B616C2E2066616B746F723A20009A
:105460004B616C6962726572696E67206665726411
:10547000696720002020202020204B616C69627227
:10548000657220202020203E00202020202056650C
:105490006B742331205B6B675D20203E00203C2035
:1054A000202056656B742332205B6B675D20203EA5
:1054B00000203C20202056656B742333205B6B67F3
:1054C0005D20203E00203C202020202053544152CB
:1054D00054003C20205374697668657473736A6560
:1054E0006B6B2020203E002020204D696E2E206B0B
:1054F00072616674205B6B675D3E00203C204D61ED
:105500006B73206B72616674205B6B675D3E00207D
:105510003C20737465672F736A656B6B205B6D6DE0
:105520005D3E003C20204D616E75656C6C2073748F
:105530007972696E67002020204D6F746F72206F42
:1055400070702031306D6D203E00203C204D6F7416
:105550006F72206E65642031306D6D203E00203CFE
:1055600020536574742030706B74206C61737420E8
:105570003E00203C2020416B7469766572206D6F7F
:10558000746F72203E00203C20205072696E74209F
:0A5590007369737465202020200069
:107E0000112484B714BE81FFF0D085E080938100F7
:107E100082E08093C00088E18093C10086E0809377
:107E2000C20080E18093C4008EE0C9D0259A86E02C
:107E300020E33CEF91E0309385002093840096BBD3
:107E4000B09BFECF1D9AA8958150A9F7CC24DD24C4
:107E500088248394B5E0AB2EA1E19A2EF3E0BF2EE7
:107E6000A2D0813461F49FD0082FAFD0023811F036
:107E7000013811F484E001C083E08DD089C08234E0
:107E800011F484E103C0853419F485E0A6D080C0E4
:107E9000853579F488D0E82EFF2485D0082F10E0AE
:107EA000102F00270E291F29000F111F8ED06801E7
:107EB0006FC0863521F484E090D080E0DECF843638
:107EC00009F040C070D06FD0082F6DD080E0C81688
:107ED00080E7D80618F4F601B7BEE895C0E0D1E017
:107EE00062D089930C17E1F7F0E0CF16F0E7DF06D8
:107EF00018F0F601B7BEE89568D007B600FCFDCFD4
:107F0000A601A0E0B1E02C9130E011968C91119780
:107F100090E0982F8827822B932B1296FA010C0160
:107F200087BEE89511244E5F5F4FF1E0A038BF0790
:107F300051F7F601A7BEE89507B600FCFDCF97BE46
:107F4000E89526C08437B1F42ED02DD0F82E2BD052
:107F50003CD0F601EF2C8F010F5F1F4F84911BD097
:107F6000EA94F801C1F70894C11CD11CFA94CF0C13
:107F7000D11C0EC0853739F428D08EE10CD085E9AC
:107F80000AD08FE07ACF813511F488E018D01DD067
:107F900080E101D065CF982F8091C00085FFFCCF94
:107FA0009093C60008958091C00087FFFCCF809118
:107FB000C00084FD01C0A8958091C6000895E0E648
:107FC000F0E098E1908380830895EDDF803219F02E
:107FD00088E0F5DFFFCF84E1DECF1F93182FE3DFCA
:107FE0001150E9F7F2DF1F91089580E0E8DFEE27F6
:047FF000FF270994CA
:027FFE00040479
:0400000300007E007B
:00000001FF
